{
	"compilerInput": "{\"language\":\"Solidity\",\"sources\":{\"umbrella.sol\":{\"content\":\"// SPDX-License-Identifier: MIT\\r\\npragma solidity ^0.8.0;\\r\\n\\r\\ncontract UmbrellaVendingMachine {\\r\\n    address public owner;\\r\\n    uint256 public umbrellaPrice;\\r\\n    uint256 public totalUmbrellas;\\r\\n    mapping(address => uint256) public userBalances;\\r\\n    mapping(address => uint256) public userUmbrellas;\\r\\n\\r\\n    event UmbrellaPurchased(address indexed buyer, uint256 umbrellasBought, uint256 balanceRemaining);\\r\\n\\r\\n    constructor(uint256 _initialUmbrellas, uint256 _initialUmbrellaPrice) {\\r\\n        owner = msg.sender;\\r\\n        totalUmbrellas = _initialUmbrellas;\\r\\n        umbrellaPrice = _initialUmbrellaPrice;\\r\\n    }\\r\\n\\r\\n    modifier onlyOwner() {\\r\\n        require(msg.sender == owner, \\\"Only the owner can perform this action\\\");\\r\\n        _;\\r\\n    }\\r\\n\\r\\n    function purchaseUmbrellas(uint256 _umbrellasToBuy) external payable {\\r\\n        require(_umbrellasToBuy > 0, \\\"You must buy at least one umbrella\\\");\\r\\n        require(msg.value >= _umbrellasToBuy * umbrellaPrice, \\\"Insufficient funds\\\");\\r\\n\\r\\n        uint256 totalCost = _umbrellasToBuy * umbrellaPrice;\\r\\n        uint256 refund = msg.value - totalCost;\\r\\n\\r\\n        if (refund > 0) {\\r\\n            userBalances[msg.sender] += refund;\\r\\n        }\\r\\n\\r\\n        userUmbrellas[msg.sender] += _umbrellasToBuy;\\r\\n        totalUmbrellas -= _umbrellasToBuy;\\r\\n\\r\\n        emit UmbrellaPurchased(msg.sender, _umbrellasToBuy, userBalances[msg.sender]);\\r\\n    }\\r\\n\\r\\n    function withdrawBalance() external {\\r\\n        uint256 balance = userBalances[msg.sender];\\r\\n        require(balance > 0, \\\"No balance to withdraw\\\");\\r\\n        userBalances[msg.sender] = 0;\\r\\n        payable(msg.sender).transfer(balance);\\r\\n    }\\r\\n\\r\\n    function refillUmbrellas(uint256 _amount) external onlyOwner {\\r\\n        totalUmbrellas += _amount;\\r\\n    }\\r\\n}\\r\\n\"}},\"settings\":{\"optimizer\":{\"enabled\":false,\"runs\":200},\"outputSelection\":{\"*\":{\"\":[\"ast\"],\"*\":[\"abi\",\"metadata\",\"devdoc\",\"userdoc\",\"storageLayout\",\"evm.legacyAssembly\",\"evm.bytecode\",\"evm.deployedBytecode\",\"evm.methodIdentifiers\",\"evm.gasEstimates\",\"evm.assembly\"]}}}}",
	"name": "UmbrellaVendingMachine",
	"bytecode": {
		"linkReferences": {},
		"object": "608060405234801561001057600080fd5b50604051610bac380380610bac833981810160405281019061003291906100c2565b336000806101000a81548173ffffffffffffffffffffffffffffffffffffffff021916908373ffffffffffffffffffffffffffffffffffffffff16021790555081600281905550806001819055505050610102565b600080fd5b6000819050919050565b61009f8161008c565b81146100aa57600080fd5b50565b6000815190506100bc81610096565b92915050565b600080604083850312156100d9576100d8610087565b5b60006100e7858286016100ad565b92505060206100f8858286016100ad565b9150509250929050565b610a9b806101116000396000f3fe60806040526004361061007b5760003560e01c80638da5cb5b1161004e5780638da5cb5b1461012d578063afaf469114610158578063ed37e77f14610183578063f2fb7bfc146101ac5761007b565b806326224c6414610080578063478d107a146100bd5780635fd8c710146100d9578063707c1228146100f0575b600080fd5b34801561008c57600080fd5b506100a760048036038101906100a29190610672565b6101d7565b6040516100b491906106b8565b60405180910390f35b6100d760048036038101906100d291906106ff565b6101ef565b005b3480156100e557600080fd5b506100ee610407565b005b3480156100fc57600080fd5b5061011760048036038101906101129190610672565b61051d565b60405161012491906106b8565b60405180910390f35b34801561013957600080fd5b50610142610535565b60405161014f919061073b565b60405180910390f35b34801561016457600080fd5b5061016d610559565b60405161017a91906106b8565b60405180910390f35b34801561018f57600080fd5b506101aa60048036038101906101a591906106ff565b61055f565b005b3480156101b857600080fd5b506101c1610609565b6040516101ce91906106b8565b60405180910390f35b60036020528060005260406000206000915090505481565b60008111610232576040517f08c379a0000000000000000000000000000000000000000000000000000000008152600401610229906107d9565b60405180910390fd5b600154816102409190610828565b341015610282576040517f08c379a0000000000000000000000000000000000000000000000000000000008152600401610279906108b6565b60405180910390fd5b6000600154826102929190610828565b9050600081346102a291906108d6565b905060008111156103045780600360003373ffffffffffffffffffffffffffffffffffffffff1673ffffffffffffffffffffffffffffffffffffffff16815260200190815260200160002060008282546102fc919061090a565b925050819055505b82600460003373ffffffffffffffffffffffffffffffffffffffff1673ffffffffffffffffffffffffffffffffffffffff1681526020019081526020016000206000828254610353919061090a565b92505081905550826002600082825461036c91906108d6565b925050819055503373ffffffffffffffffffffffffffffffffffffffff167f5f9461b4052cf2ce00a877d19c1972478d95c7c7113df56de4ce3a7cf85faf0a84600360003373ffffffffffffffffffffffffffffffffffffffff1673ffffffffffffffffffffffffffffffffffffffff168152602001908152602001600020546040516103fa92919061093e565b60405180910390a2505050565b6000600360003373ffffffffffffffffffffffffffffffffffffffff1673ffffffffffffffffffffffffffffffffffffffff1681526020019081526020016000205490506000811161048e576040517f08c379a0000000000000000000000000000000000000000000000000000000008152600401610485906109b3565b60405180910390fd5b6000600360003373ffffffffffffffffffffffffffffffffffffffff1673ffffffffffffffffffffffffffffffffffffffff168152602001908152602001600020819055503373ffffffffffffffffffffffffffffffffffffffff166108fc829081150290604051600060405180830381858888f19350505050158015610519573d6000803e3d6000fd5b5050565b60046020528060005260406000206000915090505481565b60008054906101000a900473ffffffffffffffffffffffffffffffffffffffff1681565b60025481565b60008054906101000a900473ffffffffffffffffffffffffffffffffffffffff1673ffffffffffffffffffffffffffffffffffffffff163373ffffffffffffffffffffffffffffffffffffffff16146105ed576040517f08c379a00000000000000000000000000000000000000000000000000000000081526004016105e490610a45565b60405180910390fd5b80600260008282546105ff919061090a565b9250508190555050565b60015481565b600080fd5b600073ffffffffffffffffffffffffffffffffffffffff82169050919050565b600061063f82610614565b9050919050565b61064f81610634565b811461065a57600080fd5b50565b60008135905061066c81610646565b92915050565b6000602082840312156106885761068761060f565b5b60006106968482850161065d565b91505092915050565b6000819050919050565b6106b28161069f565b82525050565b60006020820190506106cd60008301846106a9565b92915050565b6106dc8161069f565b81146106e757600080fd5b50565b6000813590506106f9816106d3565b92915050565b6000602082840312156107155761071461060f565b5b6000610723848285016106ea565b91505092915050565b61073581610634565b82525050565b6000602082019050610750600083018461072c565b92915050565b600082825260208201905092915050565b7f596f75206d75737420627579206174206c65617374206f6e6520756d6272656c60008201527f6c61000000000000000000000000000000000000000000000000000000000000602082015250565b60006107c3602283610756565b91506107ce82610767565b604082019050919050565b600060208201905081810360008301526107f2816107b6565b9050919050565b7f4e487b7100000000000000000000000000000000000000000000000000000000600052601160045260246000fd5b60006108338261069f565b915061083e8361069f565b925082820261084c8161069f565b91508282048414831517610863576108626107f9565b5b5092915050565b7f496e73756666696369656e742066756e64730000000000000000000000000000600082015250565b60006108a0601283610756565b91506108ab8261086a565b602082019050919050565b600060208201905081810360008301526108cf81610893565b9050919050565b60006108e18261069f565b91506108ec8361069f565b9250828203905081811115610904576109036107f9565b5b92915050565b60006109158261069f565b91506109208361069f565b9250828201905080821115610938576109376107f9565b5b92915050565b600060408201905061095360008301856106a9565b61096060208301846106a9565b9392505050565b7f4e6f2062616c616e636520746f20776974686472617700000000000000000000600082015250565b600061099d601683610756565b91506109a882610967565b602082019050919050565b600060208201905081810360008301526109cc81610990565b9050919050565b7f4f6e6c7920746865206f776e65722063616e20706572666f726d20746869732060008201527f616374696f6e0000000000000000000000000000000000000000000000000000602082015250565b6000610a2f602683610756565b9150610a3a826109d3565b604082019050919050565b60006020820190508181036000830152610a5e81610a22565b905091905056fea26469706673582212205d52119450ef09aff29aa0f8a981e68c9b86e8590be6930aefae94f710b90af164736f6c63430008120033",
		"opcodes": "PUSH1 0x80 PUSH1 0x40 MSTORE CALLVALUE DUP1 ISZERO PUSH2 0x10 JUMPI PUSH1 0x0 DUP1 REVERT JUMPDEST POP PUSH1 0x40 MLOAD PUSH2 0xBAC CODESIZE SUB DUP1 PUSH2 0xBAC DUP4 CODECOPY DUP2 DUP2 ADD PUSH1 0x40 MSTORE DUP2 ADD SWAP1 PUSH2 0x32 SWAP2 SWAP1 PUSH2 0xC2 JUMP JUMPDEST CALLER PUSH1 0x0 DUP1 PUSH2 0x100 EXP DUP2 SLOAD DUP2 PUSH20 0xFFFFFFFFFFFFFFFFFFFFFFFFFFFFFFFFFFFFFFFF MUL NOT AND SWAP1 DUP4 PUSH20 0xFFFFFFFFFFFFFFFFFFFFFFFFFFFFFFFFFFFFFFFF AND MUL OR SWAP1 SSTORE POP DUP2 PUSH1 0x2 DUP2 SWAP1 SSTORE POP DUP1 PUSH1 0x1 DUP2 SWAP1 SSTORE POP POP POP PUSH2 0x102 JUMP JUMPDEST PUSH1 0x0 DUP1 REVERT JUMPDEST PUSH1 0x0 DUP2 SWAP1 POP SWAP2 SWAP1 POP JUMP JUMPDEST PUSH2 0x9F DUP2 PUSH2 0x8C JUMP JUMPDEST DUP2 EQ PUSH2 0xAA JUMPI PUSH1 0x0 DUP1 REVERT JUMPDEST POP JUMP JUMPDEST PUSH1 0x0 DUP2 MLOAD SWAP1 POP PUSH2 0xBC DUP2 PUSH2 0x96 JUMP JUMPDEST SWAP3 SWAP2 POP POP JUMP JUMPDEST PUSH1 0x0 DUP1 PUSH1 0x40 DUP4 DUP6 SUB SLT ISZERO PUSH2 0xD9 JUMPI PUSH2 0xD8 PUSH2 0x87 JUMP JUMPDEST JUMPDEST PUSH1 0x0 PUSH2 0xE7 DUP6 DUP3 DUP7 ADD PUSH2 0xAD JUMP JUMPDEST SWAP3 POP POP PUSH1 0x20 PUSH2 0xF8 DUP6 DUP3 DUP7 ADD PUSH2 0xAD JUMP JUMPDEST SWAP2 POP POP SWAP3 POP SWAP3 SWAP1 POP JUMP JUMPDEST PUSH2 0xA9B DUP1 PUSH2 0x111 PUSH1 0x0 CODECOPY PUSH1 0x0 RETURN INVALID PUSH1 0x80 PUSH1 0x40 MSTORE PUSH1 0x4 CALLDATASIZE LT PUSH2 0x7B JUMPI PUSH1 0x0 CALLDATALOAD PUSH1 0xE0 SHR DUP1 PUSH4 0x8DA5CB5B GT PUSH2 0x4E JUMPI DUP1 PUSH4 0x8DA5CB5B EQ PUSH2 0x12D JUMPI DUP1 PUSH4 0xAFAF4691 EQ PUSH2 0x158 JUMPI DUP1 PUSH4 0xED37E77F EQ PUSH2 0x183 JUMPI DUP1 PUSH4 0xF2FB7BFC EQ PUSH2 0x1AC JUMPI PUSH2 0x7B JUMP JUMPDEST DUP1 PUSH4 0x26224C64 EQ PUSH2 0x80 JUMPI DUP1 PUSH4 0x478D107A EQ PUSH2 0xBD JUMPI DUP1 PUSH4 0x5FD8C710 EQ PUSH2 0xD9 JUMPI DUP1 PUSH4 0x707C1228 EQ PUSH2 0xF0 JUMPI JUMPDEST PUSH1 0x0 DUP1 REVERT JUMPDEST CALLVALUE DUP1 ISZERO PUSH2 0x8C JUMPI PUSH1 0x0 DUP1 REVERT JUMPDEST POP PUSH2 0xA7 PUSH1 0x4 DUP1 CALLDATASIZE SUB DUP2 ADD SWAP1 PUSH2 0xA2 SWAP2 SWAP1 PUSH2 0x672 JUMP JUMPDEST PUSH2 0x1D7 JUMP JUMPDEST PUSH1 0x40 MLOAD PUSH2 0xB4 SWAP2 SWAP1 PUSH2 0x6B8 JUMP JUMPDEST PUSH1 0x40 MLOAD DUP1 SWAP2 SUB SWAP1 RETURN JUMPDEST PUSH2 0xD7 PUSH1 0x4 DUP1 CALLDATASIZE SUB DUP2 ADD SWAP1 PUSH2 0xD2 SWAP2 SWAP1 PUSH2 0x6FF JUMP JUMPDEST PUSH2 0x1EF JUMP JUMPDEST STOP JUMPDEST CALLVALUE DUP1 ISZERO PUSH2 0xE5 JUMPI PUSH1 0x0 DUP1 REVERT JUMPDEST POP PUSH2 0xEE PUSH2 0x407 JUMP JUMPDEST STOP JUMPDEST CALLVALUE DUP1 ISZERO PUSH2 0xFC JUMPI PUSH1 0x0 DUP1 REVERT JUMPDEST POP PUSH2 0x117 PUSH1 0x4 DUP1 CALLDATASIZE SUB DUP2 ADD SWAP1 PUSH2 0x112 SWAP2 SWAP1 PUSH2 0x672 JUMP JUMPDEST PUSH2 0x51D JUMP JUMPDEST PUSH1 0x40 MLOAD PUSH2 0x124 SWAP2 SWAP1 PUSH2 0x6B8 JUMP JUMPDEST PUSH1 0x40 MLOAD DUP1 SWAP2 SUB SWAP1 RETURN JUMPDEST CALLVALUE DUP1 ISZERO PUSH2 0x139 JUMPI PUSH1 0x0 DUP1 REVERT JUMPDEST POP PUSH2 0x142 PUSH2 0x535 JUMP JUMPDEST PUSH1 0x40 MLOAD PUSH2 0x14F SWAP2 SWAP1 PUSH2 0x73B JUMP JUMPDEST PUSH1 0x40 MLOAD DUP1 SWAP2 SUB SWAP1 RETURN JUMPDEST CALLVALUE DUP1 ISZERO PUSH2 0x164 JUMPI PUSH1 0x0 DUP1 REVERT JUMPDEST POP PUSH2 0x16D PUSH2 0x559 JUMP JUMPDEST PUSH1 0x40 MLOAD PUSH2 0x17A SWAP2 SWAP1 PUSH2 0x6B8 JUMP JUMPDEST PUSH1 0x40 MLOAD DUP1 SWAP2 SUB SWAP1 RETURN JUMPDEST CALLVALUE DUP1 ISZERO PUSH2 0x18F JUMPI PUSH1 0x0 DUP1 REVERT JUMPDEST POP PUSH2 0x1AA PUSH1 0x4 DUP1 CALLDATASIZE SUB DUP2 ADD SWAP1 PUSH2 0x1A5 SWAP2 SWAP1 PUSH2 0x6FF JUMP JUMPDEST PUSH2 0x55F JUMP JUMPDEST STOP JUMPDEST CALLVALUE DUP1 ISZERO PUSH2 0x1B8 JUMPI PUSH1 0x0 DUP1 REVERT JUMPDEST POP PUSH2 0x1C1 PUSH2 0x609 JUMP JUMPDEST PUSH1 0x40 MLOAD PUSH2 0x1CE SWAP2 SWAP1 PUSH2 0x6B8 JUMP JUMPDEST PUSH1 0x40 MLOAD DUP1 SWAP2 SUB SWAP1 RETURN JUMPDEST PUSH1 0x3 PUSH1 0x20 MSTORE DUP1 PUSH1 0x0 MSTORE PUSH1 0x40 PUSH1 0x0 KECCAK256 PUSH1 0x0 SWAP2 POP SWAP1 POP SLOAD DUP2 JUMP JUMPDEST PUSH1 0x0 DUP2 GT PUSH2 0x232 JUMPI PUSH1 0x40 MLOAD PUSH32 0x8C379A000000000000000000000000000000000000000000000000000000000 DUP2 MSTORE PUSH1 0x4 ADD PUSH2 0x229 SWAP1 PUSH2 0x7D9 JUMP JUMPDEST PUSH1 0x40 MLOAD DUP1 SWAP2 SUB SWAP1 REVERT JUMPDEST PUSH1 0x1 SLOAD DUP2 PUSH2 0x240 SWAP2 SWAP1 PUSH2 0x828 JUMP JUMPDEST CALLVALUE LT ISZERO PUSH2 0x282 JUMPI PUSH1 0x40 MLOAD PUSH32 0x8C379A000000000000000000000000000000000000000000000000000000000 DUP2 MSTORE PUSH1 0x4 ADD PUSH2 0x279 SWAP1 PUSH2 0x8B6 JUMP JUMPDEST PUSH1 0x40 MLOAD DUP1 SWAP2 SUB SWAP1 REVERT JUMPDEST PUSH1 0x0 PUSH1 0x1 SLOAD DUP3 PUSH2 0x292 SWAP2 SWAP1 PUSH2 0x828 JUMP JUMPDEST SWAP1 POP PUSH1 0x0 DUP2 CALLVALUE PUSH2 0x2A2 SWAP2 SWAP1 PUSH2 0x8D6 JUMP JUMPDEST SWAP1 POP PUSH1 0x0 DUP2 GT ISZERO PUSH2 0x304 JUMPI DUP1 PUSH1 0x3 PUSH1 0x0 CALLER PUSH20 0xFFFFFFFFFFFFFFFFFFFFFFFFFFFFFFFFFFFFFFFF AND PUSH20 0xFFFFFFFFFFFFFFFFFFFFFFFFFFFFFFFFFFFFFFFF AND DUP2 MSTORE PUSH1 0x20 ADD SWAP1 DUP2 MSTORE PUSH1 0x20 ADD PUSH1 0x0 KECCAK256 PUSH1 0x0 DUP3 DUP3 SLOAD PUSH2 0x2FC SWAP2 SWAP1 PUSH2 0x90A JUMP JUMPDEST SWAP3 POP POP DUP2 SWAP1 SSTORE POP JUMPDEST DUP3 PUSH1 0x4 PUSH1 0x0 CALLER PUSH20 0xFFFFFFFFFFFFFFFFFFFFFFFFFFFFFFFFFFFFFFFF AND PUSH20 0xFFFFFFFFFFFFFFFFFFFFFFFFFFFFFFFFFFFFFFFF AND DUP2 MSTORE PUSH1 0x20 ADD SWAP1 DUP2 MSTORE PUSH1 0x20 ADD PUSH1 0x0 KECCAK256 PUSH1 0x0 DUP3 DUP3 SLOAD PUSH2 0x353 SWAP2 SWAP1 PUSH2 0x90A JUMP JUMPDEST SWAP3 POP POP DUP2 SWAP1 SSTORE POP DUP3 PUSH1 0x2 PUSH1 0x0 DUP3 DUP3 SLOAD PUSH2 0x36C SWAP2 SWAP1 PUSH2 0x8D6 JUMP JUMPDEST SWAP3 POP POP DUP2 SWAP1 SSTORE POP CALLER PUSH20 0xFFFFFFFFFFFFFFFFFFFFFFFFFFFFFFFFFFFFFFFF AND PUSH32 0x5F9461B4052CF2CE00A877D19C1972478D95C7C7113DF56DE4CE3A7CF85FAF0A DUP5 PUSH1 0x3 PUSH1 0x0 CALLER PUSH20 0xFFFFFFFFFFFFFFFFFFFFFFFFFFFFFFFFFFFFFFFF AND PUSH20 0xFFFFFFFFFFFFFFFFFFFFFFFFFFFFFFFFFFFFFFFF AND DUP2 MSTORE PUSH1 0x20 ADD SWAP1 DUP2 MSTORE PUSH1 0x20 ADD PUSH1 0x0 KECCAK256 SLOAD PUSH1 0x40 MLOAD PUSH2 0x3FA SWAP3 SWAP2 SWAP1 PUSH2 0x93E JUMP JUMPDEST PUSH1 0x40 MLOAD DUP1 SWAP2 SUB SWAP1 LOG2 POP POP POP JUMP JUMPDEST PUSH1 0x0 PUSH1 0x3 PUSH1 0x0 CALLER PUSH20 0xFFFFFFFFFFFFFFFFFFFFFFFFFFFFFFFFFFFFFFFF AND PUSH20 0xFFFFFFFFFFFFFFFFFFFFFFFFFFFFFFFFFFFFFFFF AND DUP2 MSTORE PUSH1 0x20 ADD SWAP1 DUP2 MSTORE PUSH1 0x20 ADD PUSH1 0x0 KECCAK256 SLOAD SWAP1 POP PUSH1 0x0 DUP2 GT PUSH2 0x48E JUMPI PUSH1 0x40 MLOAD PUSH32 0x8C379A000000000000000000000000000000000000000000000000000000000 DUP2 MSTORE PUSH1 0x4 ADD PUSH2 0x485 SWAP1 PUSH2 0x9B3 JUMP JUMPDEST PUSH1 0x40 MLOAD DUP1 SWAP2 SUB SWAP1 REVERT JUMPDEST PUSH1 0x0 PUSH1 0x3 PUSH1 0x0 CALLER PUSH20 0xFFFFFFFFFFFFFFFFFFFFFFFFFFFFFFFFFFFFFFFF AND PUSH20 0xFFFFFFFFFFFFFFFFFFFFFFFFFFFFFFFFFFFFFFFF AND DUP2 MSTORE PUSH1 0x20 ADD SWAP1 DUP2 MSTORE PUSH1 0x20 ADD PUSH1 0x0 KECCAK256 DUP2 SWAP1 SSTORE POP CALLER PUSH20 0xFFFFFFFFFFFFFFFFFFFFFFFFFFFFFFFFFFFFFFFF AND PUSH2 0x8FC DUP3 SWAP1 DUP2 ISZERO MUL SWAP1 PUSH1 0x40 MLOAD PUSH1 0x0 PUSH1 0x40 MLOAD DUP1 DUP4 SUB DUP2 DUP6 DUP9 DUP9 CALL SWAP4 POP POP POP POP ISZERO DUP1 ISZERO PUSH2 0x519 JUMPI RETURNDATASIZE PUSH1 0x0 DUP1 RETURNDATACOPY RETURNDATASIZE PUSH1 0x0 REVERT JUMPDEST POP POP JUMP JUMPDEST PUSH1 0x4 PUSH1 0x20 MSTORE DUP1 PUSH1 0x0 MSTORE PUSH1 0x40 PUSH1 0x0 KECCAK256 PUSH1 0x0 SWAP2 POP SWAP1 POP SLOAD DUP2 JUMP JUMPDEST PUSH1 0x0 DUP1 SLOAD SWAP1 PUSH2 0x100 EXP SWAP1 DIV PUSH20 0xFFFFFFFFFFFFFFFFFFFFFFFFFFFFFFFFFFFFFFFF AND DUP2 JUMP JUMPDEST PUSH1 0x2 SLOAD DUP2 JUMP JUMPDEST PUSH1 0x0 DUP1 SLOAD SWAP1 PUSH2 0x100 EXP SWAP1 DIV PUSH20 0xFFFFFFFFFFFFFFFFFFFFFFFFFFFFFFFFFFFFFFFF AND PUSH20 0xFFFFFFFFFFFFFFFFFFFFFFFFFFFFFFFFFFFFFFFF AND CALLER PUSH20 0xFFFFFFFFFFFFFFFFFFFFFFFFFFFFFFFFFFFFFFFF AND EQ PUSH2 0x5ED JUMPI PUSH1 0x40 MLOAD PUSH32 0x8C379A000000000000000000000000000000000000000000000000000000000 DUP2 MSTORE PUSH1 0x4 ADD PUSH2 0x5E4 SWAP1 PUSH2 0xA45 JUMP JUMPDEST PUSH1 0x40 MLOAD DUP1 SWAP2 SUB SWAP1 REVERT JUMPDEST DUP1 PUSH1 0x2 PUSH1 0x0 DUP3 DUP3 SLOAD PUSH2 0x5FF SWAP2 SWAP1 PUSH2 0x90A JUMP JUMPDEST SWAP3 POP POP DUP2 SWAP1 SSTORE POP POP JUMP JUMPDEST PUSH1 0x1 SLOAD DUP2 JUMP JUMPDEST PUSH1 0x0 DUP1 REVERT JUMPDEST PUSH1 0x0 PUSH20 0xFFFFFFFFFFFFFFFFFFFFFFFFFFFFFFFFFFFFFFFF DUP3 AND SWAP1 POP SWAP2 SWAP1 POP JUMP JUMPDEST PUSH1 0x0 PUSH2 0x63F DUP3 PUSH2 0x614 JUMP JUMPDEST SWAP1 POP SWAP2 SWAP1 POP JUMP JUMPDEST PUSH2 0x64F DUP2 PUSH2 0x634 JUMP JUMPDEST DUP2 EQ PUSH2 0x65A JUMPI PUSH1 0x0 DUP1 REVERT JUMPDEST POP JUMP JUMPDEST PUSH1 0x0 DUP2 CALLDATALOAD SWAP1 POP PUSH2 0x66C DUP2 PUSH2 0x646 JUMP JUMPDEST SWAP3 SWAP2 POP POP JUMP JUMPDEST PUSH1 0x0 PUSH1 0x20 DUP3 DUP5 SUB SLT ISZERO PUSH2 0x688 JUMPI PUSH2 0x687 PUSH2 0x60F JUMP JUMPDEST JUMPDEST PUSH1 0x0 PUSH2 0x696 DUP5 DUP3 DUP6 ADD PUSH2 0x65D JUMP JUMPDEST SWAP2 POP POP SWAP3 SWAP2 POP POP JUMP JUMPDEST PUSH1 0x0 DUP2 SWAP1 POP SWAP2 SWAP1 POP JUMP JUMPDEST PUSH2 0x6B2 DUP2 PUSH2 0x69F JUMP JUMPDEST DUP3 MSTORE POP POP JUMP JUMPDEST PUSH1 0x0 PUSH1 0x20 DUP3 ADD SWAP1 POP PUSH2 0x6CD PUSH1 0x0 DUP4 ADD DUP5 PUSH2 0x6A9 JUMP JUMPDEST SWAP3 SWAP2 POP POP JUMP JUMPDEST PUSH2 0x6DC DUP2 PUSH2 0x69F JUMP JUMPDEST DUP2 EQ PUSH2 0x6E7 JUMPI PUSH1 0x0 DUP1 REVERT JUMPDEST POP JUMP JUMPDEST PUSH1 0x0 DUP2 CALLDATALOAD SWAP1 POP PUSH2 0x6F9 DUP2 PUSH2 0x6D3 JUMP JUMPDEST SWAP3 SWAP2 POP POP JUMP JUMPDEST PUSH1 0x0 PUSH1 0x20 DUP3 DUP5 SUB SLT ISZERO PUSH2 0x715 JUMPI PUSH2 0x714 PUSH2 0x60F JUMP JUMPDEST JUMPDEST PUSH1 0x0 PUSH2 0x723 DUP5 DUP3 DUP6 ADD PUSH2 0x6EA JUMP JUMPDEST SWAP2 POP POP SWAP3 SWAP2 POP POP JUMP JUMPDEST PUSH2 0x735 DUP2 PUSH2 0x634 JUMP JUMPDEST DUP3 MSTORE POP POP JUMP JUMPDEST PUSH1 0x0 PUSH1 0x20 DUP3 ADD SWAP1 POP PUSH2 0x750 PUSH1 0x0 DUP4 ADD DUP5 PUSH2 0x72C JUMP JUMPDEST SWAP3 SWAP2 POP POP JUMP JUMPDEST PUSH1 0x0 DUP3 DUP3 MSTORE PUSH1 0x20 DUP3 ADD SWAP1 POP SWAP3 SWAP2 POP POP JUMP JUMPDEST PUSH32 0x596F75206D75737420627579206174206C65617374206F6E6520756D6272656C PUSH1 0x0 DUP3 ADD MSTORE PUSH32 0x6C61000000000000000000000000000000000000000000000000000000000000 PUSH1 0x20 DUP3 ADD MSTORE POP JUMP JUMPDEST PUSH1 0x0 PUSH2 0x7C3 PUSH1 0x22 DUP4 PUSH2 0x756 JUMP JUMPDEST SWAP2 POP PUSH2 0x7CE DUP3 PUSH2 0x767 JUMP JUMPDEST PUSH1 0x40 DUP3 ADD SWAP1 POP SWAP2 SWAP1 POP JUMP JUMPDEST PUSH1 0x0 PUSH1 0x20 DUP3 ADD SWAP1 POP DUP2 DUP2 SUB PUSH1 0x0 DUP4 ADD MSTORE PUSH2 0x7F2 DUP2 PUSH2 0x7B6 JUMP JUMPDEST SWAP1 POP SWAP2 SWAP1 POP JUMP JUMPDEST PUSH32 0x4E487B7100000000000000000000000000000000000000000000000000000000 PUSH1 0x0 MSTORE PUSH1 0x11 PUSH1 0x4 MSTORE PUSH1 0x24 PUSH1 0x0 REVERT JUMPDEST PUSH1 0x0 PUSH2 0x833 DUP3 PUSH2 0x69F JUMP JUMPDEST SWAP2 POP PUSH2 0x83E DUP4 PUSH2 0x69F JUMP JUMPDEST SWAP3 POP DUP3 DUP3 MUL PUSH2 0x84C DUP2 PUSH2 0x69F JUMP JUMPDEST SWAP2 POP DUP3 DUP3 DIV DUP5 EQ DUP4 ISZERO OR PUSH2 0x863 JUMPI PUSH2 0x862 PUSH2 0x7F9 JUMP JUMPDEST JUMPDEST POP SWAP3 SWAP2 POP POP JUMP JUMPDEST PUSH32 0x496E73756666696369656E742066756E64730000000000000000000000000000 PUSH1 0x0 DUP3 ADD MSTORE POP JUMP JUMPDEST PUSH1 0x0 PUSH2 0x8A0 PUSH1 0x12 DUP4 PUSH2 0x756 JUMP JUMPDEST SWAP2 POP PUSH2 0x8AB DUP3 PUSH2 0x86A JUMP JUMPDEST PUSH1 0x20 DUP3 ADD SWAP1 POP SWAP2 SWAP1 POP JUMP JUMPDEST PUSH1 0x0 PUSH1 0x20 DUP3 ADD SWAP1 POP DUP2 DUP2 SUB PUSH1 0x0 DUP4 ADD MSTORE PUSH2 0x8CF DUP2 PUSH2 0x893 JUMP JUMPDEST SWAP1 POP SWAP2 SWAP1 POP JUMP JUMPDEST PUSH1 0x0 PUSH2 0x8E1 DUP3 PUSH2 0x69F JUMP JUMPDEST SWAP2 POP PUSH2 0x8EC DUP4 PUSH2 0x69F JUMP JUMPDEST SWAP3 POP DUP3 DUP3 SUB SWAP1 POP DUP2 DUP2 GT ISZERO PUSH2 0x904 JUMPI PUSH2 0x903 PUSH2 0x7F9 JUMP JUMPDEST JUMPDEST SWAP3 SWAP2 POP POP JUMP JUMPDEST PUSH1 0x0 PUSH2 0x915 DUP3 PUSH2 0x69F JUMP JUMPDEST SWAP2 POP PUSH2 0x920 DUP4 PUSH2 0x69F JUMP JUMPDEST SWAP3 POP DUP3 DUP3 ADD SWAP1 POP DUP1 DUP3 GT ISZERO PUSH2 0x938 JUMPI PUSH2 0x937 PUSH2 0x7F9 JUMP JUMPDEST JUMPDEST SWAP3 SWAP2 POP POP JUMP JUMPDEST PUSH1 0x0 PUSH1 0x40 DUP3 ADD SWAP1 POP PUSH2 0x953 PUSH1 0x0 DUP4 ADD DUP6 PUSH2 0x6A9 JUMP JUMPDEST PUSH2 0x960 PUSH1 0x20 DUP4 ADD DUP5 PUSH2 0x6A9 JUMP JUMPDEST SWAP4 SWAP3 POP POP POP JUMP JUMPDEST PUSH32 0x4E6F2062616C616E636520746F20776974686472617700000000000000000000 PUSH1 0x0 DUP3 ADD MSTORE POP JUMP JUMPDEST PUSH1 0x0 PUSH2 0x99D PUSH1 0x16 DUP4 PUSH2 0x756 JUMP JUMPDEST SWAP2 POP PUSH2 0x9A8 DUP3 PUSH2 0x967 JUMP JUMPDEST PUSH1 0x20 DUP3 ADD SWAP1 POP SWAP2 SWAP1 POP JUMP JUMPDEST PUSH1 0x0 PUSH1 0x20 DUP3 ADD SWAP1 POP DUP2 DUP2 SUB PUSH1 0x0 DUP4 ADD MSTORE PUSH2 0x9CC DUP2 PUSH2 0x990 JUMP JUMPDEST SWAP1 POP SWAP2 SWAP1 POP JUMP JUMPDEST PUSH32 0x4F6E6C7920746865206F776E65722063616E20706572666F726D207468697320 PUSH1 0x0 DUP3 ADD MSTORE PUSH32 0x616374696F6E0000000000000000000000000000000000000000000000000000 PUSH1 0x20 DUP3 ADD MSTORE POP JUMP JUMPDEST PUSH1 0x0 PUSH2 0xA2F PUSH1 0x26 DUP4 PUSH2 0x756 JUMP JUMPDEST SWAP2 POP PUSH2 0xA3A DUP3 PUSH2 0x9D3 JUMP JUMPDEST PUSH1 0x40 DUP3 ADD SWAP1 POP SWAP2 SWAP1 POP JUMP JUMPDEST PUSH1 0x0 PUSH1 0x20 DUP3 ADD SWAP1 POP DUP2 DUP2 SUB PUSH1 0x0 DUP4 ADD MSTORE PUSH2 0xA5E DUP2 PUSH2 0xA22 JUMP JUMPDEST SWAP1 POP SWAP2 SWAP1 POP JUMP INVALID LOG2 PUSH5 0x6970667358 0x22 SLT KECCAK256 0x5D MSTORE GT SWAP5 POP 0xEF MULMOD 0xAF CALLCODE SWAP11 LOG0 0xF8 0xA9 DUP2 0xE6 DUP13 SWAP12 DUP7 0xE8 MSIZE SIGNEXTEND 0xE6 SWAP4 EXP 0xEF 0xAE SWAP5 0xF7 LT 0xB9 EXP CALL PUSH5 0x736F6C6343 STOP ADDMOD SLT STOP CALLER "
	},
	"abi": [
		{
			"inputs": [
				{
					"internalType": "uint256",
					"name": "_initialUmbrellas",
					"type": "uint256"
				},
				{
					"internalType": "uint256",
					"name": "_initialUmbrellaPrice",
					"type": "uint256"
				}
			],
			"stateMutability": "nonpayable",
			"type": "constructor"
		},
		{
			"anonymous": false,
			"inputs": [
				{
					"indexed": true,
					"internalType": "address",
					"name": "buyer",
					"type": "address"
				},
				{
					"indexed": false,
					"internalType": "uint256",
					"name": "umbrellasBought",
					"type": "uint256"
				},
				{
					"indexed": false,
					"internalType": "uint256",
					"name": "balanceRemaining",
					"type": "uint256"
				}
			],
			"name": "UmbrellaPurchased",
			"type": "event"
		},
		{
			"inputs": [],
			"name": "owner",
			"outputs": [
				{
					"internalType": "address",
					"name": "",
					"type": "address"
				}
			],
			"stateMutability": "view",
			"type": "function"
		},
		{
			"inputs": [
				{
					"internalType": "uint256",
					"name": "_umbrellasToBuy",
					"type": "uint256"
				}
			],
			"name": "purchaseUmbrellas",
			"outputs": [],
			"stateMutability": "payable",
			"type": "function"
		},
		{
			"inputs": [
				{
					"internalType": "uint256",
					"name": "_amount",
					"type": "uint256"
				}
			],
			"name": "refillUmbrellas",
			"outputs": [],
			"stateMutability": "nonpayable",
			"type": "function"
		},
		{
			"inputs": [],
			"name": "totalUmbrellas",
			"outputs": [
				{
					"internalType": "uint256",
					"name": "",
					"type": "uint256"
				}
			],
			"stateMutability": "view",
			"type": "function"
		},
		{
			"inputs": [],
			"name": "umbrellaPrice",
			"outputs": [
				{
					"internalType": "uint256",
					"name": "",
					"type": "uint256"
				}
			],
			"stateMutability": "view",
			"type": "function"
		},
		{
			"inputs": [
				{
					"internalType": "address",
					"name": "",
					"type": "address"
				}
			],
			"name": "userBalances",
			"outputs": [
				{
					"internalType": "uint256",
					"name": "",
					"type": "uint256"
				}
			],
			"stateMutability": "view",
			"type": "function"
		},
		{
			"inputs": [
				{
					"internalType": "address",
					"name": "",
					"type": "address"
				}
			],
			"name": "userUmbrellas",
			"outputs": [
				{
					"internalType": "uint256",
					"name": "",
					"type": "uint256"
				}
			],
			"stateMutability": "view",
			"type": "function"
		},
		{
			"inputs": [],
			"name": "withdrawBalance",
			"outputs": [],
			"stateMutability": "nonpayable",
			"type": "function"
		}
	],
	"storageLayout": {
		"storage": [
			{
				"astId": 3,
				"contract": "umbrella.sol:UmbrellaVendingMachine",
				"label": "owner",
				"offset": 0,
				"slot": "0",
				"type": "t_address"
			},
			{
				"astId": 5,
				"contract": "umbrella.sol:UmbrellaVendingMachine",
				"label": "umbrellaPrice",
				"offset": 0,
				"slot": "1",
				"type": "t_uint256"
			},
			{
				"astId": 7,
				"contract": "umbrella.sol:UmbrellaVendingMachine",
				"label": "totalUmbrellas",
				"offset": 0,
				"slot": "2",
				"type": "t_uint256"
			},
			{
				"astId": 11,
				"contract": "umbrella.sol:UmbrellaVendingMachine",
				"label": "userBalances",
				"offset": 0,
				"slot": "3",
				"type": "t_mapping(t_address,t_uint256)"
			},
			{
				"astId": 15,
				"contract": "umbrella.sol:UmbrellaVendingMachine",
				"label": "userUmbrellas",
				"offset": 0,
				"slot": "4",
				"type": "t_mapping(t_address,t_uint256)"
			}
		],
		"types": {
			"t_address": {
				"encoding": "inplace",
				"label": "address",
				"numberOfBytes": "20"
			},
			"t_mapping(t_address,t_uint256)": {
				"encoding": "mapping",
				"key": "t_address",
				"label": "mapping(address => uint256)",
				"numberOfBytes": "32",
				"value": "t_uint256"
			},
			"t_uint256": {
				"encoding": "inplace",
				"label": "uint256",
				"numberOfBytes": "32"
			}
		}
	},
	"web3Deploy": "var _initialUmbrellas = /* var of type uint256 here */ ;\nvar _initialUmbrellaPrice = /* var of type uint256 here */ ;\nvar umbrellavendingmachineContract = new web3.eth.Contract([{\"inputs\":[{\"internalType\":\"uint256\",\"name\":\"_initialUmbrellas\",\"type\":\"uint256\"},{\"internalType\":\"uint256\",\"name\":\"_initialUmbrellaPrice\",\"type\":\"uint256\"}],\"stateMutability\":\"nonpayable\",\"type\":\"constructor\"},{\"anonymous\":false,\"inputs\":[{\"indexed\":true,\"internalType\":\"address\",\"name\":\"buyer\",\"type\":\"address\"},{\"indexed\":false,\"internalType\":\"uint256\",\"name\":\"umbrellasBought\",\"type\":\"uint256\"},{\"indexed\":false,\"internalType\":\"uint256\",\"name\":\"balanceRemaining\",\"type\":\"uint256\"}],\"name\":\"UmbrellaPurchased\",\"type\":\"event\"},{\"inputs\":[],\"name\":\"owner\",\"outputs\":[{\"internalType\":\"address\",\"name\":\"\",\"type\":\"address\"}],\"stateMutability\":\"view\",\"type\":\"function\"},{\"inputs\":[{\"internalType\":\"uint256\",\"name\":\"_umbrellasToBuy\",\"type\":\"uint256\"}],\"name\":\"purchaseUmbrellas\",\"outputs\":[],\"stateMutability\":\"payable\",\"type\":\"function\"},{\"inputs\":[{\"internalType\":\"uint256\",\"name\":\"_amount\",\"type\":\"uint256\"}],\"name\":\"refillUmbrellas\",\"outputs\":[],\"stateMutability\":\"nonpayable\",\"type\":\"function\"},{\"inputs\":[],\"name\":\"totalUmbrellas\",\"outputs\":[{\"internalType\":\"uint256\",\"name\":\"\",\"type\":\"uint256\"}],\"stateMutability\":\"view\",\"type\":\"function\"},{\"inputs\":[],\"name\":\"umbrellaPrice\",\"outputs\":[{\"internalType\":\"uint256\",\"name\":\"\",\"type\":\"uint256\"}],\"stateMutability\":\"view\",\"type\":\"function\"},{\"inputs\":[{\"internalType\":\"address\",\"name\":\"\",\"type\":\"address\"}],\"name\":\"userBalances\",\"outputs\":[{\"internalType\":\"uint256\",\"name\":\"\",\"type\":\"uint256\"}],\"stateMutability\":\"view\",\"type\":\"function\"},{\"inputs\":[{\"internalType\":\"address\",\"name\":\"\",\"type\":\"address\"}],\"name\":\"userUmbrellas\",\"outputs\":[{\"internalType\":\"uint256\",\"name\":\"\",\"type\":\"uint256\"}],\"stateMutability\":\"view\",\"type\":\"function\"},{\"inputs\":[],\"name\":\"withdrawBalance\",\"outputs\":[],\"stateMutability\":\"nonpayable\",\"type\":\"function\"}]);\nvar umbrellavendingmachine = umbrellavendingmachineContract.deploy({\n     data: '0x608060405234801561001057600080fd5b50604051610bac380380610bac833981810160405281019061003291906100c2565b336000806101000a81548173ffffffffffffffffffffffffffffffffffffffff021916908373ffffffffffffffffffffffffffffffffffffffff16021790555081600281905550806001819055505050610102565b600080fd5b6000819050919050565b61009f8161008c565b81146100aa57600080fd5b50565b6000815190506100bc81610096565b92915050565b600080604083850312156100d9576100d8610087565b5b60006100e7858286016100ad565b92505060206100f8858286016100ad565b9150509250929050565b610a9b806101116000396000f3fe60806040526004361061007b5760003560e01c80638da5cb5b1161004e5780638da5cb5b1461012d578063afaf469114610158578063ed37e77f14610183578063f2fb7bfc146101ac5761007b565b806326224c6414610080578063478d107a146100bd5780635fd8c710146100d9578063707c1228146100f0575b600080fd5b34801561008c57600080fd5b506100a760048036038101906100a29190610672565b6101d7565b6040516100b491906106b8565b60405180910390f35b6100d760048036038101906100d291906106ff565b6101ef565b005b3480156100e557600080fd5b506100ee610407565b005b3480156100fc57600080fd5b5061011760048036038101906101129190610672565b61051d565b60405161012491906106b8565b60405180910390f35b34801561013957600080fd5b50610142610535565b60405161014f919061073b565b60405180910390f35b34801561016457600080fd5b5061016d610559565b60405161017a91906106b8565b60405180910390f35b34801561018f57600080fd5b506101aa60048036038101906101a591906106ff565b61055f565b005b3480156101b857600080fd5b506101c1610609565b6040516101ce91906106b8565b60405180910390f35b60036020528060005260406000206000915090505481565b60008111610232576040517f08c379a0000000000000000000000000000000000000000000000000000000008152600401610229906107d9565b60405180910390fd5b600154816102409190610828565b341015610282576040517f08c379a0000000000000000000000000000000000000000000000000000000008152600401610279906108b6565b60405180910390fd5b6000600154826102929190610828565b9050600081346102a291906108d6565b905060008111156103045780600360003373ffffffffffffffffffffffffffffffffffffffff1673ffffffffffffffffffffffffffffffffffffffff16815260200190815260200160002060008282546102fc919061090a565b925050819055505b82600460003373ffffffffffffffffffffffffffffffffffffffff1673ffffffffffffffffffffffffffffffffffffffff1681526020019081526020016000206000828254610353919061090a565b92505081905550826002600082825461036c91906108d6565b925050819055503373ffffffffffffffffffffffffffffffffffffffff167f5f9461b4052cf2ce00a877d19c1972478d95c7c7113df56de4ce3a7cf85faf0a84600360003373ffffffffffffffffffffffffffffffffffffffff1673ffffffffffffffffffffffffffffffffffffffff168152602001908152602001600020546040516103fa92919061093e565b60405180910390a2505050565b6000600360003373ffffffffffffffffffffffffffffffffffffffff1673ffffffffffffffffffffffffffffffffffffffff1681526020019081526020016000205490506000811161048e576040517f08c379a0000000000000000000000000000000000000000000000000000000008152600401610485906109b3565b60405180910390fd5b6000600360003373ffffffffffffffffffffffffffffffffffffffff1673ffffffffffffffffffffffffffffffffffffffff168152602001908152602001600020819055503373ffffffffffffffffffffffffffffffffffffffff166108fc829081150290604051600060405180830381858888f19350505050158015610519573d6000803e3d6000fd5b5050565b60046020528060005260406000206000915090505481565b60008054906101000a900473ffffffffffffffffffffffffffffffffffffffff1681565b60025481565b60008054906101000a900473ffffffffffffffffffffffffffffffffffffffff1673ffffffffffffffffffffffffffffffffffffffff163373ffffffffffffffffffffffffffffffffffffffff16146105ed576040517f08c379a00000000000000000000000000000000000000000000000000000000081526004016105e490610a45565b60405180910390fd5b80600260008282546105ff919061090a565b9250508190555050565b60015481565b600080fd5b600073ffffffffffffffffffffffffffffffffffffffff82169050919050565b600061063f82610614565b9050919050565b61064f81610634565b811461065a57600080fd5b50565b60008135905061066c81610646565b92915050565b6000602082840312156106885761068761060f565b5b60006106968482850161065d565b91505092915050565b6000819050919050565b6106b28161069f565b82525050565b60006020820190506106cd60008301846106a9565b92915050565b6106dc8161069f565b81146106e757600080fd5b50565b6000813590506106f9816106d3565b92915050565b6000602082840312156107155761071461060f565b5b6000610723848285016106ea565b91505092915050565b61073581610634565b82525050565b6000602082019050610750600083018461072c565b92915050565b600082825260208201905092915050565b7f596f75206d75737420627579206174206c65617374206f6e6520756d6272656c60008201527f6c61000000000000000000000000000000000000000000000000000000000000602082015250565b60006107c3602283610756565b91506107ce82610767565b604082019050919050565b600060208201905081810360008301526107f2816107b6565b9050919050565b7f4e487b7100000000000000000000000000000000000000000000000000000000600052601160045260246000fd5b60006108338261069f565b915061083e8361069f565b925082820261084c8161069f565b91508282048414831517610863576108626107f9565b5b5092915050565b7f496e73756666696369656e742066756e64730000000000000000000000000000600082015250565b60006108a0601283610756565b91506108ab8261086a565b602082019050919050565b600060208201905081810360008301526108cf81610893565b9050919050565b60006108e18261069f565b91506108ec8361069f565b9250828203905081811115610904576109036107f9565b5b92915050565b60006109158261069f565b91506109208361069f565b9250828201905080821115610938576109376107f9565b5b92915050565b600060408201905061095360008301856106a9565b61096060208301846106a9565b9392505050565b7f4e6f2062616c616e636520746f20776974686472617700000000000000000000600082015250565b600061099d601683610756565b91506109a882610967565b602082019050919050565b600060208201905081810360008301526109cc81610990565b9050919050565b7f4f6e6c7920746865206f776e65722063616e20706572666f726d20746869732060008201527f616374696f6e0000000000000000000000000000000000000000000000000000602082015250565b6000610a2f602683610756565b9150610a3a826109d3565b604082019050919050565b60006020820190508181036000830152610a5e81610a22565b905091905056fea26469706673582212205d52119450ef09aff29aa0f8a981e68c9b86e8590be6930aefae94f710b90af164736f6c63430008120033', \n     arguments: [\n          _initialUmbrellas,\n          _initialUmbrellaPrice,\n     ]\n}).send({\n     from: web3.eth.accounts[0], \n     gas: '4700000'\n   }, function (e, contract){\n    console.log(e, contract);\n    if (typeof contract.address !== 'undefined') {\n         console.log('Contract mined! address: ' + contract.address + ' transactionHash: ' + contract.transactionHash);\n    }\n })",
	"functionHashes": {
		"8da5cb5b": "owner()",
		"478d107a": "purchaseUmbrellas(uint256)",
		"ed37e77f": "refillUmbrellas(uint256)",
		"afaf4691": "totalUmbrellas()",
		"f2fb7bfc": "umbrellaPrice()",
		"26224c64": "userBalances(address)",
		"707c1228": "userUmbrellas(address)",
		"5fd8c710": "withdrawBalance()"
	},
	"gasEstimates": {
		"Creation": {
			"codeDepositCost": "543000",
			"executionCost": "infinite",
			"totalCost": "infinite"
		},
		"External": {
			"owner()": "2511",
			"purchaseUmbrellas(uint256)": "infinite",
			"refillUmbrellas(uint256)": "infinite",
			"totalUmbrellas()": "2451",
			"umbrellaPrice()": "2495",
			"userBalances(address)": "2815",
			"userUmbrellas(address)": "2881",
			"withdrawBalance()": "infinite"
		}
	},
	"devdoc": {
		"kind": "dev",
		"methods": {},
		"version": 1
	},
	"userdoc": {
		"kind": "user",
		"methods": {},
		"version": 1
	},
	"Runtime Bytecode": {
		"immutableReferences": {},
		"linkReferences": {},
		"object": "60806040526004361061007b5760003560e01c80638da5cb5b1161004e5780638da5cb5b1461012d578063afaf469114610158578063ed37e77f14610183578063f2fb7bfc146101ac5761007b565b806326224c6414610080578063478d107a146100bd5780635fd8c710146100d9578063707c1228146100f0575b600080fd5b34801561008c57600080fd5b506100a760048036038101906100a29190610672565b6101d7565b6040516100b491906106b8565b60405180910390f35b6100d760048036038101906100d291906106ff565b6101ef565b005b3480156100e557600080fd5b506100ee610407565b005b3480156100fc57600080fd5b5061011760048036038101906101129190610672565b61051d565b60405161012491906106b8565b60405180910390f35b34801561013957600080fd5b50610142610535565b60405161014f919061073b565b60405180910390f35b34801561016457600080fd5b5061016d610559565b60405161017a91906106b8565b60405180910390f35b34801561018f57600080fd5b506101aa60048036038101906101a591906106ff565b61055f565b005b3480156101b857600080fd5b506101c1610609565b6040516101ce91906106b8565b60405180910390f35b60036020528060005260406000206000915090505481565b60008111610232576040517f08c379a0000000000000000000000000000000000000000000000000000000008152600401610229906107d9565b60405180910390fd5b600154816102409190610828565b341015610282576040517f08c379a0000000000000000000000000000000000000000000000000000000008152600401610279906108b6565b60405180910390fd5b6000600154826102929190610828565b9050600081346102a291906108d6565b905060008111156103045780600360003373ffffffffffffffffffffffffffffffffffffffff1673ffffffffffffffffffffffffffffffffffffffff16815260200190815260200160002060008282546102fc919061090a565b925050819055505b82600460003373ffffffffffffffffffffffffffffffffffffffff1673ffffffffffffffffffffffffffffffffffffffff1681526020019081526020016000206000828254610353919061090a565b92505081905550826002600082825461036c91906108d6565b925050819055503373ffffffffffffffffffffffffffffffffffffffff167f5f9461b4052cf2ce00a877d19c1972478d95c7c7113df56de4ce3a7cf85faf0a84600360003373ffffffffffffffffffffffffffffffffffffffff1673ffffffffffffffffffffffffffffffffffffffff168152602001908152602001600020546040516103fa92919061093e565b60405180910390a2505050565b6000600360003373ffffffffffffffffffffffffffffffffffffffff1673ffffffffffffffffffffffffffffffffffffffff1681526020019081526020016000205490506000811161048e576040517f08c379a0000000000000000000000000000000000000000000000000000000008152600401610485906109b3565b60405180910390fd5b6000600360003373ffffffffffffffffffffffffffffffffffffffff1673ffffffffffffffffffffffffffffffffffffffff168152602001908152602001600020819055503373ffffffffffffffffffffffffffffffffffffffff166108fc829081150290604051600060405180830381858888f19350505050158015610519573d6000803e3d6000fd5b5050565b60046020528060005260406000206000915090505481565b60008054906101000a900473ffffffffffffffffffffffffffffffffffffffff1681565b60025481565b60008054906101000a900473ffffffffffffffffffffffffffffffffffffffff1673ffffffffffffffffffffffffffffffffffffffff163373ffffffffffffffffffffffffffffffffffffffff16146105ed576040517f08c379a00000000000000000000000000000000000000000000000000000000081526004016105e490610a45565b60405180910390fd5b80600260008282546105ff919061090a565b9250508190555050565b60015481565b600080fd5b600073ffffffffffffffffffffffffffffffffffffffff82169050919050565b600061063f82610614565b9050919050565b61064f81610634565b811461065a57600080fd5b50565b60008135905061066c81610646565b92915050565b6000602082840312156106885761068761060f565b5b60006106968482850161065d565b91505092915050565b6000819050919050565b6106b28161069f565b82525050565b60006020820190506106cd60008301846106a9565b92915050565b6106dc8161069f565b81146106e757600080fd5b50565b6000813590506106f9816106d3565b92915050565b6000602082840312156107155761071461060f565b5b6000610723848285016106ea565b91505092915050565b61073581610634565b82525050565b6000602082019050610750600083018461072c565b92915050565b600082825260208201905092915050565b7f596f75206d75737420627579206174206c65617374206f6e6520756d6272656c60008201527f6c61000000000000000000000000000000000000000000000000000000000000602082015250565b60006107c3602283610756565b91506107ce82610767565b604082019050919050565b600060208201905081810360008301526107f2816107b6565b9050919050565b7f4e487b7100000000000000000000000000000000000000000000000000000000600052601160045260246000fd5b60006108338261069f565b915061083e8361069f565b925082820261084c8161069f565b91508282048414831517610863576108626107f9565b5b5092915050565b7f496e73756666696369656e742066756e64730000000000000000000000000000600082015250565b60006108a0601283610756565b91506108ab8261086a565b602082019050919050565b600060208201905081810360008301526108cf81610893565b9050919050565b60006108e18261069f565b91506108ec8361069f565b9250828203905081811115610904576109036107f9565b5b92915050565b60006109158261069f565b91506109208361069f565b9250828201905080821115610938576109376107f9565b5b92915050565b600060408201905061095360008301856106a9565b61096060208301846106a9565b9392505050565b7f4e6f2062616c616e636520746f20776974686472617700000000000000000000600082015250565b600061099d601683610756565b91506109a882610967565b602082019050919050565b600060208201905081810360008301526109cc81610990565b9050919050565b7f4f6e6c7920746865206f776e65722063616e20706572666f726d20746869732060008201527f616374696f6e0000000000000000000000000000000000000000000000000000602082015250565b6000610a2f602683610756565b9150610a3a826109d3565b604082019050919050565b60006020820190508181036000830152610a5e81610a22565b905091905056fea26469706673582212205d52119450ef09aff29aa0f8a981e68c9b86e8590be6930aefae94f710b90af164736f6c63430008120033",
		"opcodes": "PUSH1 0x80 PUSH1 0x40 MSTORE PUSH1 0x4 CALLDATASIZE LT PUSH2 0x7B JUMPI PUSH1 0x0 CALLDATALOAD PUSH1 0xE0 SHR DUP1 PUSH4 0x8DA5CB5B GT PUSH2 0x4E JUMPI DUP1 PUSH4 0x8DA5CB5B EQ PUSH2 0x12D JUMPI DUP1 PUSH4 0xAFAF4691 EQ PUSH2 0x158 JUMPI DUP1 PUSH4 0xED37E77F EQ PUSH2 0x183 JUMPI DUP1 PUSH4 0xF2FB7BFC EQ PUSH2 0x1AC JUMPI PUSH2 0x7B JUMP JUMPDEST DUP1 PUSH4 0x26224C64 EQ PUSH2 0x80 JUMPI DUP1 PUSH4 0x478D107A EQ PUSH2 0xBD JUMPI DUP1 PUSH4 0x5FD8C710 EQ PUSH2 0xD9 JUMPI DUP1 PUSH4 0x707C1228 EQ PUSH2 0xF0 JUMPI JUMPDEST PUSH1 0x0 DUP1 REVERT JUMPDEST CALLVALUE DUP1 ISZERO PUSH2 0x8C JUMPI PUSH1 0x0 DUP1 REVERT JUMPDEST POP PUSH2 0xA7 PUSH1 0x4 DUP1 CALLDATASIZE SUB DUP2 ADD SWAP1 PUSH2 0xA2 SWAP2 SWAP1 PUSH2 0x672 JUMP JUMPDEST PUSH2 0x1D7 JUMP JUMPDEST PUSH1 0x40 MLOAD PUSH2 0xB4 SWAP2 SWAP1 PUSH2 0x6B8 JUMP JUMPDEST PUSH1 0x40 MLOAD DUP1 SWAP2 SUB SWAP1 RETURN JUMPDEST PUSH2 0xD7 PUSH1 0x4 DUP1 CALLDATASIZE SUB DUP2 ADD SWAP1 PUSH2 0xD2 SWAP2 SWAP1 PUSH2 0x6FF JUMP JUMPDEST PUSH2 0x1EF JUMP JUMPDEST STOP JUMPDEST CALLVALUE DUP1 ISZERO PUSH2 0xE5 JUMPI PUSH1 0x0 DUP1 REVERT JUMPDEST POP PUSH2 0xEE PUSH2 0x407 JUMP JUMPDEST STOP JUMPDEST CALLVALUE DUP1 ISZERO PUSH2 0xFC JUMPI PUSH1 0x0 DUP1 REVERT JUMPDEST POP PUSH2 0x117 PUSH1 0x4 DUP1 CALLDATASIZE SUB DUP2 ADD SWAP1 PUSH2 0x112 SWAP2 SWAP1 PUSH2 0x672 JUMP JUMPDEST PUSH2 0x51D JUMP JUMPDEST PUSH1 0x40 MLOAD PUSH2 0x124 SWAP2 SWAP1 PUSH2 0x6B8 JUMP JUMPDEST PUSH1 0x40 MLOAD DUP1 SWAP2 SUB SWAP1 RETURN JUMPDEST CALLVALUE DUP1 ISZERO PUSH2 0x139 JUMPI PUSH1 0x0 DUP1 REVERT JUMPDEST POP PUSH2 0x142 PUSH2 0x535 JUMP JUMPDEST PUSH1 0x40 MLOAD PUSH2 0x14F SWAP2 SWAP1 PUSH2 0x73B JUMP JUMPDEST PUSH1 0x40 MLOAD DUP1 SWAP2 SUB SWAP1 RETURN JUMPDEST CALLVALUE DUP1 ISZERO PUSH2 0x164 JUMPI PUSH1 0x0 DUP1 REVERT JUMPDEST POP PUSH2 0x16D PUSH2 0x559 JUMP JUMPDEST PUSH1 0x40 MLOAD PUSH2 0x17A SWAP2 SWAP1 PUSH2 0x6B8 JUMP JUMPDEST PUSH1 0x40 MLOAD DUP1 SWAP2 SUB SWAP1 RETURN JUMPDEST CALLVALUE DUP1 ISZERO PUSH2 0x18F JUMPI PUSH1 0x0 DUP1 REVERT JUMPDEST POP PUSH2 0x1AA PUSH1 0x4 DUP1 CALLDATASIZE SUB DUP2 ADD SWAP1 PUSH2 0x1A5 SWAP2 SWAP1 PUSH2 0x6FF JUMP JUMPDEST PUSH2 0x55F JUMP JUMPDEST STOP JUMPDEST CALLVALUE DUP1 ISZERO PUSH2 0x1B8 JUMPI PUSH1 0x0 DUP1 REVERT JUMPDEST POP PUSH2 0x1C1 PUSH2 0x609 JUMP JUMPDEST PUSH1 0x40 MLOAD PUSH2 0x1CE SWAP2 SWAP1 PUSH2 0x6B8 JUMP JUMPDEST PUSH1 0x40 MLOAD DUP1 SWAP2 SUB SWAP1 RETURN JUMPDEST PUSH1 0x3 PUSH1 0x20 MSTORE DUP1 PUSH1 0x0 MSTORE PUSH1 0x40 PUSH1 0x0 KECCAK256 PUSH1 0x0 SWAP2 POP SWAP1 POP SLOAD DUP2 JUMP JUMPDEST PUSH1 0x0 DUP2 GT PUSH2 0x232 JUMPI PUSH1 0x40 MLOAD PUSH32 0x8C379A000000000000000000000000000000000000000000000000000000000 DUP2 MSTORE PUSH1 0x4 ADD PUSH2 0x229 SWAP1 PUSH2 0x7D9 JUMP JUMPDEST PUSH1 0x40 MLOAD DUP1 SWAP2 SUB SWAP1 REVERT JUMPDEST PUSH1 0x1 SLOAD DUP2 PUSH2 0x240 SWAP2 SWAP1 PUSH2 0x828 JUMP JUMPDEST CALLVALUE LT ISZERO PUSH2 0x282 JUMPI PUSH1 0x40 MLOAD PUSH32 0x8C379A000000000000000000000000000000000000000000000000000000000 DUP2 MSTORE PUSH1 0x4 ADD PUSH2 0x279 SWAP1 PUSH2 0x8B6 JUMP JUMPDEST PUSH1 0x40 MLOAD DUP1 SWAP2 SUB SWAP1 REVERT JUMPDEST PUSH1 0x0 PUSH1 0x1 SLOAD DUP3 PUSH2 0x292 SWAP2 SWAP1 PUSH2 0x828 JUMP JUMPDEST SWAP1 POP PUSH1 0x0 DUP2 CALLVALUE PUSH2 0x2A2 SWAP2 SWAP1 PUSH2 0x8D6 JUMP JUMPDEST SWAP1 POP PUSH1 0x0 DUP2 GT ISZERO PUSH2 0x304 JUMPI DUP1 PUSH1 0x3 PUSH1 0x0 CALLER PUSH20 0xFFFFFFFFFFFFFFFFFFFFFFFFFFFFFFFFFFFFFFFF AND PUSH20 0xFFFFFFFFFFFFFFFFFFFFFFFFFFFFFFFFFFFFFFFF AND DUP2 MSTORE PUSH1 0x20 ADD SWAP1 DUP2 MSTORE PUSH1 0x20 ADD PUSH1 0x0 KECCAK256 PUSH1 0x0 DUP3 DUP3 SLOAD PUSH2 0x2FC SWAP2 SWAP1 PUSH2 0x90A JUMP JUMPDEST SWAP3 POP POP DUP2 SWAP1 SSTORE POP JUMPDEST DUP3 PUSH1 0x4 PUSH1 0x0 CALLER PUSH20 0xFFFFFFFFFFFFFFFFFFFFFFFFFFFFFFFFFFFFFFFF AND PUSH20 0xFFFFFFFFFFFFFFFFFFFFFFFFFFFFFFFFFFFFFFFF AND DUP2 MSTORE PUSH1 0x20 ADD SWAP1 DUP2 MSTORE PUSH1 0x20 ADD PUSH1 0x0 KECCAK256 PUSH1 0x0 DUP3 DUP3 SLOAD PUSH2 0x353 SWAP2 SWAP1 PUSH2 0x90A JUMP JUMPDEST SWAP3 POP POP DUP2 SWAP1 SSTORE POP DUP3 PUSH1 0x2 PUSH1 0x0 DUP3 DUP3 SLOAD PUSH2 0x36C SWAP2 SWAP1 PUSH2 0x8D6 JUMP JUMPDEST SWAP3 POP POP DUP2 SWAP1 SSTORE POP CALLER PUSH20 0xFFFFFFFFFFFFFFFFFFFFFFFFFFFFFFFFFFFFFFFF AND PUSH32 0x5F9461B4052CF2CE00A877D19C1972478D95C7C7113DF56DE4CE3A7CF85FAF0A DUP5 PUSH1 0x3 PUSH1 0x0 CALLER PUSH20 0xFFFFFFFFFFFFFFFFFFFFFFFFFFFFFFFFFFFFFFFF AND PUSH20 0xFFFFFFFFFFFFFFFFFFFFFFFFFFFFFFFFFFFFFFFF AND DUP2 MSTORE PUSH1 0x20 ADD SWAP1 DUP2 MSTORE PUSH1 0x20 ADD PUSH1 0x0 KECCAK256 SLOAD PUSH1 0x40 MLOAD PUSH2 0x3FA SWAP3 SWAP2 SWAP1 PUSH2 0x93E JUMP JUMPDEST PUSH1 0x40 MLOAD DUP1 SWAP2 SUB SWAP1 LOG2 POP POP POP JUMP JUMPDEST PUSH1 0x0 PUSH1 0x3 PUSH1 0x0 CALLER PUSH20 0xFFFFFFFFFFFFFFFFFFFFFFFFFFFFFFFFFFFFFFFF AND PUSH20 0xFFFFFFFFFFFFFFFFFFFFFFFFFFFFFFFFFFFFFFFF AND DUP2 MSTORE PUSH1 0x20 ADD SWAP1 DUP2 MSTORE PUSH1 0x20 ADD PUSH1 0x0 KECCAK256 SLOAD SWAP1 POP PUSH1 0x0 DUP2 GT PUSH2 0x48E JUMPI PUSH1 0x40 MLOAD PUSH32 0x8C379A000000000000000000000000000000000000000000000000000000000 DUP2 MSTORE PUSH1 0x4 ADD PUSH2 0x485 SWAP1 PUSH2 0x9B3 JUMP JUMPDEST PUSH1 0x40 MLOAD DUP1 SWAP2 SUB SWAP1 REVERT JUMPDEST PUSH1 0x0 PUSH1 0x3 PUSH1 0x0 CALLER PUSH20 0xFFFFFFFFFFFFFFFFFFFFFFFFFFFFFFFFFFFFFFFF AND PUSH20 0xFFFFFFFFFFFFFFFFFFFFFFFFFFFFFFFFFFFFFFFF AND DUP2 MSTORE PUSH1 0x20 ADD SWAP1 DUP2 MSTORE PUSH1 0x20 ADD PUSH1 0x0 KECCAK256 DUP2 SWAP1 SSTORE POP CALLER PUSH20 0xFFFFFFFFFFFFFFFFFFFFFFFFFFFFFFFFFFFFFFFF AND PUSH2 0x8FC DUP3 SWAP1 DUP2 ISZERO MUL SWAP1 PUSH1 0x40 MLOAD PUSH1 0x0 PUSH1 0x40 MLOAD DUP1 DUP4 SUB DUP2 DUP6 DUP9 DUP9 CALL SWAP4 POP POP POP POP ISZERO DUP1 ISZERO PUSH2 0x519 JUMPI RETURNDATASIZE PUSH1 0x0 DUP1 RETURNDATACOPY RETURNDATASIZE PUSH1 0x0 REVERT JUMPDEST POP POP JUMP JUMPDEST PUSH1 0x4 PUSH1 0x20 MSTORE DUP1 PUSH1 0x0 MSTORE PUSH1 0x40 PUSH1 0x0 KECCAK256 PUSH1 0x0 SWAP2 POP SWAP1 POP SLOAD DUP2 JUMP JUMPDEST PUSH1 0x0 DUP1 SLOAD SWAP1 PUSH2 0x100 EXP SWAP1 DIV PUSH20 0xFFFFFFFFFFFFFFFFFFFFFFFFFFFFFFFFFFFFFFFF AND DUP2 JUMP JUMPDEST PUSH1 0x2 SLOAD DUP2 JUMP JUMPDEST PUSH1 0x0 DUP1 SLOAD SWAP1 PUSH2 0x100 EXP SWAP1 DIV PUSH20 0xFFFFFFFFFFFFFFFFFFFFFFFFFFFFFFFFFFFFFFFF AND PUSH20 0xFFFFFFFFFFFFFFFFFFFFFFFFFFFFFFFFFFFFFFFF AND CALLER PUSH20 0xFFFFFFFFFFFFFFFFFFFFFFFFFFFFFFFFFFFFFFFF AND EQ PUSH2 0x5ED JUMPI PUSH1 0x40 MLOAD PUSH32 0x8C379A000000000000000000000000000000000000000000000000000000000 DUP2 MSTORE PUSH1 0x4 ADD PUSH2 0x5E4 SWAP1 PUSH2 0xA45 JUMP JUMPDEST PUSH1 0x40 MLOAD DUP1 SWAP2 SUB SWAP1 REVERT JUMPDEST DUP1 PUSH1 0x2 PUSH1 0x0 DUP3 DUP3 SLOAD PUSH2 0x5FF SWAP2 SWAP1 PUSH2 0x90A JUMP JUMPDEST SWAP3 POP POP DUP2 SWAP1 SSTORE POP POP JUMP JUMPDEST PUSH1 0x1 SLOAD DUP2 JUMP JUMPDEST PUSH1 0x0 DUP1 REVERT JUMPDEST PUSH1 0x0 PUSH20 0xFFFFFFFFFFFFFFFFFFFFFFFFFFFFFFFFFFFFFFFF DUP3 AND SWAP1 POP SWAP2 SWAP1 POP JUMP JUMPDEST PUSH1 0x0 PUSH2 0x63F DUP3 PUSH2 0x614 JUMP JUMPDEST SWAP1 POP SWAP2 SWAP1 POP JUMP JUMPDEST PUSH2 0x64F DUP2 PUSH2 0x634 JUMP JUMPDEST DUP2 EQ PUSH2 0x65A JUMPI PUSH1 0x0 DUP1 REVERT JUMPDEST POP JUMP JUMPDEST PUSH1 0x0 DUP2 CALLDATALOAD SWAP1 POP PUSH2 0x66C DUP2 PUSH2 0x646 JUMP JUMPDEST SWAP3 SWAP2 POP POP JUMP JUMPDEST PUSH1 0x0 PUSH1 0x20 DUP3 DUP5 SUB SLT ISZERO PUSH2 0x688 JUMPI PUSH2 0x687 PUSH2 0x60F JUMP JUMPDEST JUMPDEST PUSH1 0x0 PUSH2 0x696 DUP5 DUP3 DUP6 ADD PUSH2 0x65D JUMP JUMPDEST SWAP2 POP POP SWAP3 SWAP2 POP POP JUMP JUMPDEST PUSH1 0x0 DUP2 SWAP1 POP SWAP2 SWAP1 POP JUMP JUMPDEST PUSH2 0x6B2 DUP2 PUSH2 0x69F JUMP JUMPDEST DUP3 MSTORE POP POP JUMP JUMPDEST PUSH1 0x0 PUSH1 0x20 DUP3 ADD SWAP1 POP PUSH2 0x6CD PUSH1 0x0 DUP4 ADD DUP5 PUSH2 0x6A9 JUMP JUMPDEST SWAP3 SWAP2 POP POP JUMP JUMPDEST PUSH2 0x6DC DUP2 PUSH2 0x69F JUMP JUMPDEST DUP2 EQ PUSH2 0x6E7 JUMPI PUSH1 0x0 DUP1 REVERT JUMPDEST POP JUMP JUMPDEST PUSH1 0x0 DUP2 CALLDATALOAD SWAP1 POP PUSH2 0x6F9 DUP2 PUSH2 0x6D3 JUMP JUMPDEST SWAP3 SWAP2 POP POP JUMP JUMPDEST PUSH1 0x0 PUSH1 0x20 DUP3 DUP5 SUB SLT ISZERO PUSH2 0x715 JUMPI PUSH2 0x714 PUSH2 0x60F JUMP JUMPDEST JUMPDEST PUSH1 0x0 PUSH2 0x723 DUP5 DUP3 DUP6 ADD PUSH2 0x6EA JUMP JUMPDEST SWAP2 POP POP SWAP3 SWAP2 POP POP JUMP JUMPDEST PUSH2 0x735 DUP2 PUSH2 0x634 JUMP JUMPDEST DUP3 MSTORE POP POP JUMP JUMPDEST PUSH1 0x0 PUSH1 0x20 DUP3 ADD SWAP1 POP PUSH2 0x750 PUSH1 0x0 DUP4 ADD DUP5 PUSH2 0x72C JUMP JUMPDEST SWAP3 SWAP2 POP POP JUMP JUMPDEST PUSH1 0x0 DUP3 DUP3 MSTORE PUSH1 0x20 DUP3 ADD SWAP1 POP SWAP3 SWAP2 POP POP JUMP JUMPDEST PUSH32 0x596F75206D75737420627579206174206C65617374206F6E6520756D6272656C PUSH1 0x0 DUP3 ADD MSTORE PUSH32 0x6C61000000000000000000000000000000000000000000000000000000000000 PUSH1 0x20 DUP3 ADD MSTORE POP JUMP JUMPDEST PUSH1 0x0 PUSH2 0x7C3 PUSH1 0x22 DUP4 PUSH2 0x756 JUMP JUMPDEST SWAP2 POP PUSH2 0x7CE DUP3 PUSH2 0x767 JUMP JUMPDEST PUSH1 0x40 DUP3 ADD SWAP1 POP SWAP2 SWAP1 POP JUMP JUMPDEST PUSH1 0x0 PUSH1 0x20 DUP3 ADD SWAP1 POP DUP2 DUP2 SUB PUSH1 0x0 DUP4 ADD MSTORE PUSH2 0x7F2 DUP2 PUSH2 0x7B6 JUMP JUMPDEST SWAP1 POP SWAP2 SWAP1 POP JUMP JUMPDEST PUSH32 0x4E487B7100000000000000000000000000000000000000000000000000000000 PUSH1 0x0 MSTORE PUSH1 0x11 PUSH1 0x4 MSTORE PUSH1 0x24 PUSH1 0x0 REVERT JUMPDEST PUSH1 0x0 PUSH2 0x833 DUP3 PUSH2 0x69F JUMP JUMPDEST SWAP2 POP PUSH2 0x83E DUP4 PUSH2 0x69F JUMP JUMPDEST SWAP3 POP DUP3 DUP3 MUL PUSH2 0x84C DUP2 PUSH2 0x69F JUMP JUMPDEST SWAP2 POP DUP3 DUP3 DIV DUP5 EQ DUP4 ISZERO OR PUSH2 0x863 JUMPI PUSH2 0x862 PUSH2 0x7F9 JUMP JUMPDEST JUMPDEST POP SWAP3 SWAP2 POP POP JUMP JUMPDEST PUSH32 0x496E73756666696369656E742066756E64730000000000000000000000000000 PUSH1 0x0 DUP3 ADD MSTORE POP JUMP JUMPDEST PUSH1 0x0 PUSH2 0x8A0 PUSH1 0x12 DUP4 PUSH2 0x756 JUMP JUMPDEST SWAP2 POP PUSH2 0x8AB DUP3 PUSH2 0x86A JUMP JUMPDEST PUSH1 0x20 DUP3 ADD SWAP1 POP SWAP2 SWAP1 POP JUMP JUMPDEST PUSH1 0x0 PUSH1 0x20 DUP3 ADD SWAP1 POP DUP2 DUP2 SUB PUSH1 0x0 DUP4 ADD MSTORE PUSH2 0x8CF DUP2 PUSH2 0x893 JUMP JUMPDEST SWAP1 POP SWAP2 SWAP1 POP JUMP JUMPDEST PUSH1 0x0 PUSH2 0x8E1 DUP3 PUSH2 0x69F JUMP JUMPDEST SWAP2 POP PUSH2 0x8EC DUP4 PUSH2 0x69F JUMP JUMPDEST SWAP3 POP DUP3 DUP3 SUB SWAP1 POP DUP2 DUP2 GT ISZERO PUSH2 0x904 JUMPI PUSH2 0x903 PUSH2 0x7F9 JUMP JUMPDEST JUMPDEST SWAP3 SWAP2 POP POP JUMP JUMPDEST PUSH1 0x0 PUSH2 0x915 DUP3 PUSH2 0x69F JUMP JUMPDEST SWAP2 POP PUSH2 0x920 DUP4 PUSH2 0x69F JUMP JUMPDEST SWAP3 POP DUP3 DUP3 ADD SWAP1 POP DUP1 DUP3 GT ISZERO PUSH2 0x938 JUMPI PUSH2 0x937 PUSH2 0x7F9 JUMP JUMPDEST JUMPDEST SWAP3 SWAP2 POP POP JUMP JUMPDEST PUSH1 0x0 PUSH1 0x40 DUP3 ADD SWAP1 POP PUSH2 0x953 PUSH1 0x0 DUP4 ADD DUP6 PUSH2 0x6A9 JUMP JUMPDEST PUSH2 0x960 PUSH1 0x20 DUP4 ADD DUP5 PUSH2 0x6A9 JUMP JUMPDEST SWAP4 SWAP3 POP POP POP JUMP JUMPDEST PUSH32 0x4E6F2062616C616E636520746F20776974686472617700000000000000000000 PUSH1 0x0 DUP3 ADD MSTORE POP JUMP JUMPDEST PUSH1 0x0 PUSH2 0x99D PUSH1 0x16 DUP4 PUSH2 0x756 JUMP JUMPDEST SWAP2 POP PUSH2 0x9A8 DUP3 PUSH2 0x967 JUMP JUMPDEST PUSH1 0x20 DUP3 ADD SWAP1 POP SWAP2 SWAP1 POP JUMP JUMPDEST PUSH1 0x0 PUSH1 0x20 DUP3 ADD SWAP1 POP DUP2 DUP2 SUB PUSH1 0x0 DUP4 ADD MSTORE PUSH2 0x9CC DUP2 PUSH2 0x990 JUMP JUMPDEST SWAP1 POP SWAP2 SWAP1 POP JUMP JUMPDEST PUSH32 0x4F6E6C7920746865206F776E65722063616E20706572666F726D207468697320 PUSH1 0x0 DUP3 ADD MSTORE PUSH32 0x616374696F6E0000000000000000000000000000000000000000000000000000 PUSH1 0x20 DUP3 ADD MSTORE POP JUMP JUMPDEST PUSH1 0x0 PUSH2 0xA2F PUSH1 0x26 DUP4 PUSH2 0x756 JUMP JUMPDEST SWAP2 POP PUSH2 0xA3A DUP3 PUSH2 0x9D3 JUMP JUMPDEST PUSH1 0x40 DUP3 ADD SWAP1 POP SWAP2 SWAP1 POP JUMP JUMPDEST PUSH1 0x0 PUSH1 0x20 DUP3 ADD SWAP1 POP DUP2 DUP2 SUB PUSH1 0x0 DUP4 ADD MSTORE PUSH2 0xA5E DUP2 PUSH2 0xA22 JUMP JUMPDEST SWAP1 POP SWAP2 SWAP1 POP JUMP INVALID LOG2 PUSH5 0x6970667358 0x22 SLT KECCAK256 0x5D MSTORE GT SWAP5 POP 0xEF MULMOD 0xAF CALLCODE SWAP11 LOG0 0xF8 0xA9 DUP2 0xE6 DUP13 SWAP12 DUP7 0xE8 MSIZE SIGNEXTEND 0xE6 SWAP4 EXP 0xEF 0xAE SWAP5 0xF7 LT 0xB9 EXP CALL PUSH5 0x736F6C6343 STOP ADDMOD SLT STOP CALLER "
	},
	"Assembly": ".code\n  PUSH 80\t\t\tcontract UmbrellaVendingMachin...\n  PUSH 40\t\t\tcontract UmbrellaVendingMachin...\n  MSTORE \t\t\tcontract UmbrellaVendingMachin...\n  CALLVALUE \t\t\tconstructor(uint256 _initialUm...\n  DUP1 \t\t\tconstructor(uint256 _initialUm...\n  ISZERO \t\t\tconstructor(uint256 _initialUm...\n  PUSH [tag] 1\t\t\tconstructor(uint256 _initialUm...\n  JUMPI \t\t\tconstructor(uint256 _initialUm...\n  PUSH 0\t\t\tconstructor(uint256 _initialUm...\n  DUP1 \t\t\tconstructor(uint256 _initialUm...\n  REVERT \t\t\tconstructor(uint256 _initialUm...\ntag 1\t\t\tconstructor(uint256 _initialUm...\n  JUMPDEST \t\t\tconstructor(uint256 _initialUm...\n  POP \t\t\tconstructor(uint256 _initialUm...\n  PUSH 40\t\t\tconstructor(uint256 _initialUm...\n  MLOAD \t\t\tconstructor(uint256 _initialUm...\n  PUSHSIZE \t\t\tconstructor(uint256 _initialUm...\n  CODESIZE \t\t\tconstructor(uint256 _initialUm...\n  SUB \t\t\tconstructor(uint256 _initialUm...\n  DUP1 \t\t\tconstructor(uint256 _initialUm...\n  PUSHSIZE \t\t\tconstructor(uint256 _initialUm...\n  DUP4 \t\t\tconstructor(uint256 _initialUm...\n  CODECOPY \t\t\tconstructor(uint256 _initialUm...\n  DUP2 \t\t\tconstructor(uint256 _initialUm...\n  DUP2 \t\t\tconstructor(uint256 _initialUm...\n  ADD \t\t\tconstructor(uint256 _initialUm...\n  PUSH 40\t\t\tconstructor(uint256 _initialUm...\n  MSTORE \t\t\tconstructor(uint256 _initialUm...\n  DUP2 \t\t\tconstructor(uint256 _initialUm...\n  ADD \t\t\tconstructor(uint256 _initialUm...\n  SWAP1 \t\t\tconstructor(uint256 _initialUm...\n  PUSH [tag] 2\t\t\tconstructor(uint256 _initialUm...\n  SWAP2 \t\t\tconstructor(uint256 _initialUm...\n  SWAP1 \t\t\tconstructor(uint256 _initialUm...\n  PUSH [tag] 3\t\t\tconstructor(uint256 _initialUm...\n  JUMP \t\t\tconstructor(uint256 _initialUm...\ntag 2\t\t\tconstructor(uint256 _initialUm...\n  JUMPDEST \t\t\tconstructor(uint256 _initialUm...\n  CALLER \t\t\tmsg.sender\n  PUSH 0\t\t\towner\n  DUP1 \t\t\towner\n  PUSH 100\t\t\towner = msg.sender\n  EXP \t\t\towner = msg.sender\n  DUP2 \t\t\towner = msg.sender\n  SLOAD \t\t\towner = msg.sender\n  DUP2 \t\t\towner = msg.sender\n  PUSH FFFFFFFFFFFFFFFFFFFFFFFFFFFFFFFFFFFFFFFF\t\t\towner = msg.sender\n  MUL \t\t\towner = msg.sender\n  NOT \t\t\towner = msg.sender\n  AND \t\t\towner = msg.sender\n  SWAP1 \t\t\towner = msg.sender\n  DUP4 \t\t\towner = msg.sender\n  PUSH FFFFFFFFFFFFFFFFFFFFFFFFFFFFFFFFFFFFFFFF\t\t\towner = msg.sender\n  AND \t\t\towner = msg.sender\n  MUL \t\t\towner = msg.sender\n  OR \t\t\towner = msg.sender\n  SWAP1 \t\t\towner = msg.sender\n  SSTORE \t\t\towner = msg.sender\n  POP \t\t\towner = msg.sender\n  DUP2 \t\t\t_initialUmbrellas\n  PUSH 2\t\t\ttotalUmbrellas\n  DUP2 \t\t\ttotalUmbrellas = _initialUmbre...\n  SWAP1 \t\t\ttotalUmbrellas = _initialUmbre...\n  SSTORE \t\t\ttotalUmbrellas = _initialUmbre...\n  POP \t\t\ttotalUmbrellas = _initialUmbre...\n  DUP1 \t\t\t_initialUmbrellaPrice\n  PUSH 1\t\t\tumbrellaPrice\n  DUP2 \t\t\tumbrellaPrice = _initialUmbrel...\n  SWAP1 \t\t\tumbrellaPrice = _initialUmbrel...\n  SSTORE \t\t\tumbrellaPrice = _initialUmbrel...\n  POP \t\t\tumbrellaPrice = _initialUmbrel...\n  POP \t\t\tconstructor(uint256 _initialUm...\n  POP \t\t\tconstructor(uint256 _initialUm...\n  PUSH [tag] 6\t\t\tcontract UmbrellaVendingMachin...\n  JUMP \t\t\tcontract UmbrellaVendingMachin...\ntag 8\t\t\tine {\\r\\n    address public ow...\n  JUMPDEST \t\t\tine {\\r\\n    address public ow...\n  PUSH 0\t\t\tm\n  DUP1 \t\t\t \n  REVERT \t\t\tlas;\\r\\n    ma\ntag 10\t\t\tdress indexed buyer, uint256 u...\n  JUMPDEST \t\t\tdress indexed buyer, uint256 u...\n  PUSH 0\t\t\tsBought\n  DUP2 \t\t\tning)\n  SWAP1 \t\t\talanceRemaining)\n  POP \t\t\talanceRemaining)\n  SWAP2 \t\t\tdress indexed buyer, uint256 u...\n  SWAP1 \t\t\tdress indexed buyer, uint256 u...\n  POP \t\t\tdress indexed buyer, uint256 u...\n  JUMP \t\t\tdress indexed buyer, uint256 u...\ntag 11\t\t\tstructor(uint256 _initialUmbre...\n  JUMPDEST \t\t\tstructor(uint256 _initialUmbre...\n  PUSH [tag] 19\t\t\t     owner = msg.sender;\n  DUP2 \t\t\tender\n  PUSH [tag] 10\t\t\t     owner = msg.sender;\n  JUMP \t\t\t     owner = msg.sender;\ntag 19\t\t\t     owner = msg.sender;\n  JUMPDEST \t\t\t     owner = msg.sender;\n  DUP2 \t\t\t {\\r\\n \n  EQ \t\t\tce) {\\r\\n        owner = msg.s...\n  PUSH [tag] 20\t\t\tmbrellaPrice) {\\r\\n        own...\n  JUMPI \t\t\tmbrellaPrice) {\\r\\n        own...\n  PUSH 0\t\t\tU\n  DUP1 \t\t\tt\n  REVERT \t\t\t     totalUm\ntag 20\t\t\tmbrellaPrice) {\\r\\n        own...\n  JUMPDEST \t\t\tmbrellaPrice) {\\r\\n        own...\n  POP \t\t\tstructor(uint256 _initialUmbre...\n  JUMP \t\t\tstructor(uint256 _initialUmbre...\ntag 12\t\t\ttialUmbrellas;\\r\\n        umbr...\n  JUMPDEST \t\t\ttialUmbrellas;\\r\\n        umbr...\n  PUSH 0\t\t\trice;\n  DUP2 \t\t\tlyOwne\n  MLOAD \t\t\tier onlyOwner\n  SWAP1 \t\t\t    modifier onlyOwner\n  POP \t\t\t    modifier onlyOwner\n  PUSH [tag] 22\t\t\t     require(msg.sender == own...\n  DUP2 \t\t\towner\n  PUSH [tag] 11\t\t\t     require(msg.sender == own...\n  JUMP \t\t\t     require(msg.sender == own...\ntag 22\t\t\t     require(msg.sender == own...\n  JUMPDEST \t\t\t     require(msg.sender == own...\n  SWAP3 \t\t\ttialUmbrellas;\\r\\n        umbr...\n  SWAP2 \t\t\ttialUmbrellas;\\r\\n        umbr...\n  POP \t\t\ttialUmbrellas;\\r\\n        umbr...\n  POP \t\t\ttialUmbrellas;\\r\\n        umbr...\n  JUMP \t\t\ttialUmbrellas;\\r\\n        umbr...\ntag 3\t\t\twner can perform this action\")...\n  JUMPDEST \t\t\twner can perform this action\")...\n  PUSH 0\t\t\tellas(\n  DUP1 \t\t\tnt256 \n  PUSH 40\t\t\t  \n  DUP4 \t\t\tle {\\r\\n   \n  DUP6 \t\t\tnal pay\n  SUB \t\t\txternal payable {\\r\\n    \n  SLT \t\t\ty) external payable {\\r\\n     ...\n  ISZERO \t\t\toBuy) external payable {\\r\\n  ...\n  PUSH [tag] 24\t\t\toBuy) external payable {\\r\\n  ...\n  JUMPI \t\t\toBuy) external payable {\\r\\n  ...\n  PUSH [tag] 25\t\t\tire(_umbrellasToBuy > 0, \"You ...\n  PUSH [tag] 8\t\t\tire(_umbrellasToBuy > 0, \"You ...\n  JUMP \t\t\tire(_umbrellasToBuy > 0, \"You ...\ntag 25\t\t\tire(_umbrellasToBuy > 0, \"You ...\n  JUMPDEST \t\t\tire(_umbrellasToBuy > 0, \"You ...\ntag 24\t\t\toBuy) external payable {\\r\\n  ...\n  JUMPDEST \t\t\toBuy) external payable {\\r\\n  ...\n  PUSH 0\t\t\tP\n  PUSH [tag] 26\t\t\ts\");\\r\\n\\r\\n        uint256 to...\n  DUP6 \t\t\tbrellaP\n  DUP3 \t\t\toBuy *\n  DUP7 \t\t\t_umbrella\n  ADD \t\t\tt = _umbrellasToBuy * \n  PUSH [tag] 12\t\t\ts\");\\r\\n\\r\\n        uint256 to...\n  JUMP \t\t\ts\");\\r\\n\\r\\n        uint256 to...\ntag 26\t\t\ts\");\\r\\n\\r\\n        uint256 to...\n  JUMPDEST \t\t\ts\");\\r\\n\\r\\n        uint256 to...\n  SWAP3 \t\t\tcient funds\");\\r\\n\\r\\n        ...\n  POP \t\t\tcient funds\");\\r\\n\\r\\n        ...\n  POP \t\t\t>= _umbrellasToBuy * umbrellaP...\n  PUSH 20\t\t\tos\n  PUSH [tag] 27\t\t\t > 0) {\\r\\n            userBal...\n  DUP6 \t\t\t\\r\\n     \n  DUP3 \t\t\t= refu\n  DUP7 \t\t\tg.sender]\n  ADD \t\t\ts[msg.sender] += refun\n  PUSH [tag] 12\t\t\t > 0) {\\r\\n            userBal...\n  JUMP \t\t\t > 0) {\\r\\n            userBal...\ntag 27\t\t\t > 0) {\\r\\n            userBal...\n  JUMPDEST \t\t\t > 0) {\\r\\n            userBal...\n  SWAP2 \t\t\tif (refund > 0) {\\r\\n         ...\n  POP \t\t\tif (refund > 0) {\\r\\n         ...\n  POP \t\t\t6 refund = msg.value - totalCo...\n  SWAP3 \t\t\twner can perform this action\")...\n  POP \t\t\twner can perform this action\")...\n  SWAP3 \t\t\twner can perform this action\")...\n  SWAP1 \t\t\twner can perform this action\")...\n  POP \t\t\twner can perform this action\")...\n  JUMP \t\t\twner can perform this action\")...\ntag 6\t\t\tcontract UmbrellaVendingMachin...\n  JUMPDEST \t\t\tcontract UmbrellaVendingMachin...\n  PUSH #[$] 0000000000000000000000000000000000000000000000000000000000000000\t\t\tcontract UmbrellaVendingMachin...\n  DUP1 \t\t\tcontract UmbrellaVendingMachin...\n  PUSH [$] 0000000000000000000000000000000000000000000000000000000000000000\t\t\tcontract UmbrellaVendingMachin...\n  PUSH 0\t\t\tcontract UmbrellaVendingMachin...\n  CODECOPY \t\t\tcontract UmbrellaVendingMachin...\n  PUSH 0\t\t\tcontract UmbrellaVendingMachin...\n  RETURN \t\t\tcontract UmbrellaVendingMachin...\n.data\n  0:\n    .code\n      PUSH 80\t\t\tcontract UmbrellaVendingMachin...\n      PUSH 40\t\t\tcontract UmbrellaVendingMachin...\n      MSTORE \t\t\tcontract UmbrellaVendingMachin...\n      PUSH 4\t\t\tcontract UmbrellaVendingMachin...\n      CALLDATASIZE \t\t\tcontract UmbrellaVendingMachin...\n      LT \t\t\tcontract UmbrellaVendingMachin...\n      PUSH [tag] 1\t\t\tcontract UmbrellaVendingMachin...\n      JUMPI \t\t\tcontract UmbrellaVendingMachin...\n      PUSH 0\t\t\tcontract UmbrellaVendingMachin...\n      CALLDATALOAD \t\t\tcontract UmbrellaVendingMachin...\n      PUSH E0\t\t\tcontract UmbrellaVendingMachin...\n      SHR \t\t\tcontract UmbrellaVendingMachin...\n      DUP1 \t\t\tcontract UmbrellaVendingMachin...\n      PUSH 8DA5CB5B\t\t\tcontract UmbrellaVendingMachin...\n      GT \t\t\tcontract UmbrellaVendingMachin...\n      PUSH [tag] 10\t\t\tcontract UmbrellaVendingMachin...\n      JUMPI \t\t\tcontract UmbrellaVendingMachin...\n      DUP1 \t\t\tcontract UmbrellaVendingMachin...\n      PUSH 8DA5CB5B\t\t\tcontract UmbrellaVendingMachin...\n      EQ \t\t\tcontract UmbrellaVendingMachin...\n      PUSH [tag] 6\t\t\tcontract UmbrellaVendingMachin...\n      JUMPI \t\t\tcontract UmbrellaVendingMachin...\n      DUP1 \t\t\tcontract UmbrellaVendingMachin...\n      PUSH AFAF4691\t\t\tcontract UmbrellaVendingMachin...\n      EQ \t\t\tcontract UmbrellaVendingMachin...\n      PUSH [tag] 7\t\t\tcontract UmbrellaVendingMachin...\n      JUMPI \t\t\tcontract UmbrellaVendingMachin...\n      DUP1 \t\t\tcontract UmbrellaVendingMachin...\n      PUSH ED37E77F\t\t\tcontract UmbrellaVendingMachin...\n      EQ \t\t\tcontract UmbrellaVendingMachin...\n      PUSH [tag] 8\t\t\tcontract UmbrellaVendingMachin...\n      JUMPI \t\t\tcontract UmbrellaVendingMachin...\n      DUP1 \t\t\tcontract UmbrellaVendingMachin...\n      PUSH F2FB7BFC\t\t\tcontract UmbrellaVendingMachin...\n      EQ \t\t\tcontract UmbrellaVendingMachin...\n      PUSH [tag] 9\t\t\tcontract UmbrellaVendingMachin...\n      JUMPI \t\t\tcontract UmbrellaVendingMachin...\n      PUSH [tag] 1\t\t\tcontract UmbrellaVendingMachin...\n      JUMP \t\t\tcontract UmbrellaVendingMachin...\n    tag 10\t\t\tcontract UmbrellaVendingMachin...\n      JUMPDEST \t\t\tcontract UmbrellaVendingMachin...\n      DUP1 \t\t\tcontract UmbrellaVendingMachin...\n      PUSH 26224C64\t\t\tcontract UmbrellaVendingMachin...\n      EQ \t\t\tcontract UmbrellaVendingMachin...\n      PUSH [tag] 2\t\t\tcontract UmbrellaVendingMachin...\n      JUMPI \t\t\tcontract UmbrellaVendingMachin...\n      DUP1 \t\t\tcontract UmbrellaVendingMachin...\n      PUSH 478D107A\t\t\tcontract UmbrellaVendingMachin...\n      EQ \t\t\tcontract UmbrellaVendingMachin...\n      PUSH [tag] 3\t\t\tcontract UmbrellaVendingMachin...\n      JUMPI \t\t\tcontract UmbrellaVendingMachin...\n      DUP1 \t\t\tcontract UmbrellaVendingMachin...\n      PUSH 5FD8C710\t\t\tcontract UmbrellaVendingMachin...\n      EQ \t\t\tcontract UmbrellaVendingMachin...\n      PUSH [tag] 4\t\t\tcontract UmbrellaVendingMachin...\n      JUMPI \t\t\tcontract UmbrellaVendingMachin...\n      DUP1 \t\t\tcontract UmbrellaVendingMachin...\n      PUSH 707C1228\t\t\tcontract UmbrellaVendingMachin...\n      EQ \t\t\tcontract UmbrellaVendingMachin...\n      PUSH [tag] 5\t\t\tcontract UmbrellaVendingMachin...\n      JUMPI \t\t\tcontract UmbrellaVendingMachin...\n    tag 1\t\t\tcontract UmbrellaVendingMachin...\n      JUMPDEST \t\t\tcontract UmbrellaVendingMachin...\n      PUSH 0\t\t\tcontract UmbrellaVendingMachin...\n      DUP1 \t\t\tcontract UmbrellaVendingMachin...\n      REVERT \t\t\tcontract UmbrellaVendingMachin...\n    tag 2\t\t\tmapping(address => uint256) pu...\n      JUMPDEST \t\t\tmapping(address => uint256) pu...\n      CALLVALUE \t\t\tmapping(address => uint256) pu...\n      DUP1 \t\t\tmapping(address => uint256) pu...\n      ISZERO \t\t\tmapping(address => uint256) pu...\n      PUSH [tag] 11\t\t\tmapping(address => uint256) pu...\n      JUMPI \t\t\tmapping(address => uint256) pu...\n      PUSH 0\t\t\tmapping(address => uint256) pu...\n      DUP1 \t\t\tmapping(address => uint256) pu...\n      REVERT \t\t\tmapping(address => uint256) pu...\n    tag 11\t\t\tmapping(address => uint256) pu...\n      JUMPDEST \t\t\tmapping(address => uint256) pu...\n      POP \t\t\tmapping(address => uint256) pu...\n      PUSH [tag] 12\t\t\tmapping(address => uint256) pu...\n      PUSH 4\t\t\tmapping(address => uint256) pu...\n      DUP1 \t\t\tmapping(address => uint256) pu...\n      CALLDATASIZE \t\t\tmapping(address => uint256) pu...\n      SUB \t\t\tmapping(address => uint256) pu...\n      DUP2 \t\t\tmapping(address => uint256) pu...\n      ADD \t\t\tmapping(address => uint256) pu...\n      SWAP1 \t\t\tmapping(address => uint256) pu...\n      PUSH [tag] 13\t\t\tmapping(address => uint256) pu...\n      SWAP2 \t\t\tmapping(address => uint256) pu...\n      SWAP1 \t\t\tmapping(address => uint256) pu...\n      PUSH [tag] 14\t\t\tmapping(address => uint256) pu...\n      JUMP \t\t\tmapping(address => uint256) pu...\n    tag 13\t\t\tmapping(address => uint256) pu...\n      JUMPDEST \t\t\tmapping(address => uint256) pu...\n      PUSH [tag] 15\t\t\tmapping(address => uint256) pu...\n      JUMP \t\t\tmapping(address => uint256) pu...\n    tag 12\t\t\tmapping(address => uint256) pu...\n      JUMPDEST \t\t\tmapping(address => uint256) pu...\n      PUSH 40\t\t\tmapping(address => uint256) pu...\n      MLOAD \t\t\tmapping(address => uint256) pu...\n      PUSH [tag] 16\t\t\tmapping(address => uint256) pu...\n      SWAP2 \t\t\tmapping(address => uint256) pu...\n      SWAP1 \t\t\tmapping(address => uint256) pu...\n      PUSH [tag] 17\t\t\tmapping(address => uint256) pu...\n      JUMP \t\t\tmapping(address => uint256) pu...\n    tag 16\t\t\tmapping(address => uint256) pu...\n      JUMPDEST \t\t\tmapping(address => uint256) pu...\n      PUSH 40\t\t\tmapping(address => uint256) pu...\n      MLOAD \t\t\tmapping(address => uint256) pu...\n      DUP1 \t\t\tmapping(address => uint256) pu...\n      SWAP2 \t\t\tmapping(address => uint256) pu...\n      SUB \t\t\tmapping(address => uint256) pu...\n      SWAP1 \t\t\tmapping(address => uint256) pu...\n      RETURN \t\t\tmapping(address => uint256) pu...\n    tag 3\t\t\tfunction purchaseUmbrellas(uin...\n      JUMPDEST \t\t\tfunction purchaseUmbrellas(uin...\n      PUSH [tag] 18\t\t\tfunction purchaseUmbrellas(uin...\n      PUSH 4\t\t\tfunction purchaseUmbrellas(uin...\n      DUP1 \t\t\tfunction purchaseUmbrellas(uin...\n      CALLDATASIZE \t\t\tfunction purchaseUmbrellas(uin...\n      SUB \t\t\tfunction purchaseUmbrellas(uin...\n      DUP2 \t\t\tfunction purchaseUmbrellas(uin...\n      ADD \t\t\tfunction purchaseUmbrellas(uin...\n      SWAP1 \t\t\tfunction purchaseUmbrellas(uin...\n      PUSH [tag] 19\t\t\tfunction purchaseUmbrellas(uin...\n      SWAP2 \t\t\tfunction purchaseUmbrellas(uin...\n      SWAP1 \t\t\tfunction purchaseUmbrellas(uin...\n      PUSH [tag] 20\t\t\tfunction purchaseUmbrellas(uin...\n      JUMP \t\t\tfunction purchaseUmbrellas(uin...\n    tag 19\t\t\tfunction purchaseUmbrellas(uin...\n      JUMPDEST \t\t\tfunction purchaseUmbrellas(uin...\n      PUSH [tag] 21\t\t\tfunction purchaseUmbrellas(uin...\n      JUMP \t\t\tfunction purchaseUmbrellas(uin...\n    tag 18\t\t\tfunction purchaseUmbrellas(uin...\n      JUMPDEST \t\t\tfunction purchaseUmbrellas(uin...\n      STOP \t\t\tfunction purchaseUmbrellas(uin...\n    tag 4\t\t\tfunction withdrawBalance() ext...\n      JUMPDEST \t\t\tfunction withdrawBalance() ext...\n      CALLVALUE \t\t\tfunction withdrawBalance() ext...\n      DUP1 \t\t\tfunction withdrawBalance() ext...\n      ISZERO \t\t\tfunction withdrawBalance() ext...\n      PUSH [tag] 22\t\t\tfunction withdrawBalance() ext...\n      JUMPI \t\t\tfunction withdrawBalance() ext...\n      PUSH 0\t\t\tfunction withdrawBalance() ext...\n      DUP1 \t\t\tfunction withdrawBalance() ext...\n      REVERT \t\t\tfunction withdrawBalance() ext...\n    tag 22\t\t\tfunction withdrawBalance() ext...\n      JUMPDEST \t\t\tfunction withdrawBalance() ext...\n      POP \t\t\tfunction withdrawBalance() ext...\n      PUSH [tag] 23\t\t\tfunction withdrawBalance() ext...\n      PUSH [tag] 24\t\t\tfunction withdrawBalance() ext...\n      JUMP \t\t\tfunction withdrawBalance() ext...\n    tag 23\t\t\tfunction withdrawBalance() ext...\n      JUMPDEST \t\t\tfunction withdrawBalance() ext...\n      STOP \t\t\tfunction withdrawBalance() ext...\n    tag 5\t\t\tmapping(address => uint256) pu...\n      JUMPDEST \t\t\tmapping(address => uint256) pu...\n      CALLVALUE \t\t\tmapping(address => uint256) pu...\n      DUP1 \t\t\tmapping(address => uint256) pu...\n      ISZERO \t\t\tmapping(address => uint256) pu...\n      PUSH [tag] 25\t\t\tmapping(address => uint256) pu...\n      JUMPI \t\t\tmapping(address => uint256) pu...\n      PUSH 0\t\t\tmapping(address => uint256) pu...\n      DUP1 \t\t\tmapping(address => uint256) pu...\n      REVERT \t\t\tmapping(address => uint256) pu...\n    tag 25\t\t\tmapping(address => uint256) pu...\n      JUMPDEST \t\t\tmapping(address => uint256) pu...\n      POP \t\t\tmapping(address => uint256) pu...\n      PUSH [tag] 26\t\t\tmapping(address => uint256) pu...\n      PUSH 4\t\t\tmapping(address => uint256) pu...\n      DUP1 \t\t\tmapping(address => uint256) pu...\n      CALLDATASIZE \t\t\tmapping(address => uint256) pu...\n      SUB \t\t\tmapping(address => uint256) pu...\n      DUP2 \t\t\tmapping(address => uint256) pu...\n      ADD \t\t\tmapping(address => uint256) pu...\n      SWAP1 \t\t\tmapping(address => uint256) pu...\n      PUSH [tag] 27\t\t\tmapping(address => uint256) pu...\n      SWAP2 \t\t\tmapping(address => uint256) pu...\n      SWAP1 \t\t\tmapping(address => uint256) pu...\n      PUSH [tag] 14\t\t\tmapping(address => uint256) pu...\n      JUMP \t\t\tmapping(address => uint256) pu...\n    tag 27\t\t\tmapping(address => uint256) pu...\n      JUMPDEST \t\t\tmapping(address => uint256) pu...\n      PUSH [tag] 28\t\t\tmapping(address => uint256) pu...\n      JUMP \t\t\tmapping(address => uint256) pu...\n    tag 26\t\t\tmapping(address => uint256) pu...\n      JUMPDEST \t\t\tmapping(address => uint256) pu...\n      PUSH 40\t\t\tmapping(address => uint256) pu...\n      MLOAD \t\t\tmapping(address => uint256) pu...\n      PUSH [tag] 29\t\t\tmapping(address => uint256) pu...\n      SWAP2 \t\t\tmapping(address => uint256) pu...\n      SWAP1 \t\t\tmapping(address => uint256) pu...\n      PUSH [tag] 17\t\t\tmapping(address => uint256) pu...\n      JUMP \t\t\tmapping(address => uint256) pu...\n    tag 29\t\t\tmapping(address => uint256) pu...\n      JUMPDEST \t\t\tmapping(address => uint256) pu...\n      PUSH 40\t\t\tmapping(address => uint256) pu...\n      MLOAD \t\t\tmapping(address => uint256) pu...\n      DUP1 \t\t\tmapping(address => uint256) pu...\n      SWAP2 \t\t\tmapping(address => uint256) pu...\n      SUB \t\t\tmapping(address => uint256) pu...\n      SWAP1 \t\t\tmapping(address => uint256) pu...\n      RETURN \t\t\tmapping(address => uint256) pu...\n    tag 6\t\t\taddress public owner\n      JUMPDEST \t\t\taddress public owner\n      CALLVALUE \t\t\taddress public owner\n      DUP1 \t\t\taddress public owner\n      ISZERO \t\t\taddress public owner\n      PUSH [tag] 30\t\t\taddress public owner\n      JUMPI \t\t\taddress public owner\n      PUSH 0\t\t\taddress public owner\n      DUP1 \t\t\taddress public owner\n      REVERT \t\t\taddress public owner\n    tag 30\t\t\taddress public owner\n      JUMPDEST \t\t\taddress public owner\n      POP \t\t\taddress public owner\n      PUSH [tag] 31\t\t\taddress public owner\n      PUSH [tag] 32\t\t\taddress public owner\n      JUMP \t\t\taddress public owner\n    tag 31\t\t\taddress public owner\n      JUMPDEST \t\t\taddress public owner\n      PUSH 40\t\t\taddress public owner\n      MLOAD \t\t\taddress public owner\n      PUSH [tag] 33\t\t\taddress public owner\n      SWAP2 \t\t\taddress public owner\n      SWAP1 \t\t\taddress public owner\n      PUSH [tag] 34\t\t\taddress public owner\n      JUMP \t\t\taddress public owner\n    tag 33\t\t\taddress public owner\n      JUMPDEST \t\t\taddress public owner\n      PUSH 40\t\t\taddress public owner\n      MLOAD \t\t\taddress public owner\n      DUP1 \t\t\taddress public owner\n      SWAP2 \t\t\taddress public owner\n      SUB \t\t\taddress public owner\n      SWAP1 \t\t\taddress public owner\n      RETURN \t\t\taddress public owner\n    tag 7\t\t\tuint256 public totalUmbrellas\n      JUMPDEST \t\t\tuint256 public totalUmbrellas\n      CALLVALUE \t\t\tuint256 public totalUmbrellas\n      DUP1 \t\t\tuint256 public totalUmbrellas\n      ISZERO \t\t\tuint256 public totalUmbrellas\n      PUSH [tag] 35\t\t\tuint256 public totalUmbrellas\n      JUMPI \t\t\tuint256 public totalUmbrellas\n      PUSH 0\t\t\tuint256 public totalUmbrellas\n      DUP1 \t\t\tuint256 public totalUmbrellas\n      REVERT \t\t\tuint256 public totalUmbrellas\n    tag 35\t\t\tuint256 public totalUmbrellas\n      JUMPDEST \t\t\tuint256 public totalUmbrellas\n      POP \t\t\tuint256 public totalUmbrellas\n      PUSH [tag] 36\t\t\tuint256 public totalUmbrellas\n      PUSH [tag] 37\t\t\tuint256 public totalUmbrellas\n      JUMP \t\t\tuint256 public totalUmbrellas\n    tag 36\t\t\tuint256 public totalUmbrellas\n      JUMPDEST \t\t\tuint256 public totalUmbrellas\n      PUSH 40\t\t\tuint256 public totalUmbrellas\n      MLOAD \t\t\tuint256 public totalUmbrellas\n      PUSH [tag] 38\t\t\tuint256 public totalUmbrellas\n      SWAP2 \t\t\tuint256 public totalUmbrellas\n      SWAP1 \t\t\tuint256 public totalUmbrellas\n      PUSH [tag] 17\t\t\tuint256 public totalUmbrellas\n      JUMP \t\t\tuint256 public totalUmbrellas\n    tag 38\t\t\tuint256 public totalUmbrellas\n      JUMPDEST \t\t\tuint256 public totalUmbrellas\n      PUSH 40\t\t\tuint256 public totalUmbrellas\n      MLOAD \t\t\tuint256 public totalUmbrellas\n      DUP1 \t\t\tuint256 public totalUmbrellas\n      SWAP2 \t\t\tuint256 public totalUmbrellas\n      SUB \t\t\tuint256 public totalUmbrellas\n      SWAP1 \t\t\tuint256 public totalUmbrellas\n      RETURN \t\t\tuint256 public totalUmbrellas\n    tag 8\t\t\tfunction refillUmbrellas(uint2...\n      JUMPDEST \t\t\tfunction refillUmbrellas(uint2...\n      CALLVALUE \t\t\tfunction refillUmbrellas(uint2...\n      DUP1 \t\t\tfunction refillUmbrellas(uint2...\n      ISZERO \t\t\tfunction refillUmbrellas(uint2...\n      PUSH [tag] 39\t\t\tfunction refillUmbrellas(uint2...\n      JUMPI \t\t\tfunction refillUmbrellas(uint2...\n      PUSH 0\t\t\tfunction refillUmbrellas(uint2...\n      DUP1 \t\t\tfunction refillUmbrellas(uint2...\n      REVERT \t\t\tfunction refillUmbrellas(uint2...\n    tag 39\t\t\tfunction refillUmbrellas(uint2...\n      JUMPDEST \t\t\tfunction refillUmbrellas(uint2...\n      POP \t\t\tfunction refillUmbrellas(uint2...\n      PUSH [tag] 40\t\t\tfunction refillUmbrellas(uint2...\n      PUSH 4\t\t\tfunction refillUmbrellas(uint2...\n      DUP1 \t\t\tfunction refillUmbrellas(uint2...\n      CALLDATASIZE \t\t\tfunction refillUmbrellas(uint2...\n      SUB \t\t\tfunction refillUmbrellas(uint2...\n      DUP2 \t\t\tfunction refillUmbrellas(uint2...\n      ADD \t\t\tfunction refillUmbrellas(uint2...\n      SWAP1 \t\t\tfunction refillUmbrellas(uint2...\n      PUSH [tag] 41\t\t\tfunction refillUmbrellas(uint2...\n      SWAP2 \t\t\tfunction refillUmbrellas(uint2...\n      SWAP1 \t\t\tfunction refillUmbrellas(uint2...\n      PUSH [tag] 20\t\t\tfunction refillUmbrellas(uint2...\n      JUMP \t\t\tfunction refillUmbrellas(uint2...\n    tag 41\t\t\tfunction refillUmbrellas(uint2...\n      JUMPDEST \t\t\tfunction refillUmbrellas(uint2...\n      PUSH [tag] 42\t\t\tfunction refillUmbrellas(uint2...\n      JUMP \t\t\tfunction refillUmbrellas(uint2...\n    tag 40\t\t\tfunction refillUmbrellas(uint2...\n      JUMPDEST \t\t\tfunction refillUmbrellas(uint2...\n      STOP \t\t\tfunction refillUmbrellas(uint2...\n    tag 9\t\t\tuint256 public umbrellaPrice\n      JUMPDEST \t\t\tuint256 public umbrellaPrice\n      CALLVALUE \t\t\tuint256 public umbrellaPrice\n      DUP1 \t\t\tuint256 public umbrellaPrice\n      ISZERO \t\t\tuint256 public umbrellaPrice\n      PUSH [tag] 43\t\t\tuint256 public umbrellaPrice\n      JUMPI \t\t\tuint256 public umbrellaPrice\n      PUSH 0\t\t\tuint256 public umbrellaPrice\n      DUP1 \t\t\tuint256 public umbrellaPrice\n      REVERT \t\t\tuint256 public umbrellaPrice\n    tag 43\t\t\tuint256 public umbrellaPrice\n      JUMPDEST \t\t\tuint256 public umbrellaPrice\n      POP \t\t\tuint256 public umbrellaPrice\n      PUSH [tag] 44\t\t\tuint256 public umbrellaPrice\n      PUSH [tag] 45\t\t\tuint256 public umbrellaPrice\n      JUMP \t\t\tuint256 public umbrellaPrice\n    tag 44\t\t\tuint256 public umbrellaPrice\n      JUMPDEST \t\t\tuint256 public umbrellaPrice\n      PUSH 40\t\t\tuint256 public umbrellaPrice\n      MLOAD \t\t\tuint256 public umbrellaPrice\n      PUSH [tag] 46\t\t\tuint256 public umbrellaPrice\n      SWAP2 \t\t\tuint256 public umbrellaPrice\n      SWAP1 \t\t\tuint256 public umbrellaPrice\n      PUSH [tag] 17\t\t\tuint256 public umbrellaPrice\n      JUMP \t\t\tuint256 public umbrellaPrice\n    tag 46\t\t\tuint256 public umbrellaPrice\n      JUMPDEST \t\t\tuint256 public umbrellaPrice\n      PUSH 40\t\t\tuint256 public umbrellaPrice\n      MLOAD \t\t\tuint256 public umbrellaPrice\n      DUP1 \t\t\tuint256 public umbrellaPrice\n      SWAP2 \t\t\tuint256 public umbrellaPrice\n      SUB \t\t\tuint256 public umbrellaPrice\n      SWAP1 \t\t\tuint256 public umbrellaPrice\n      RETURN \t\t\tuint256 public umbrellaPrice\n    tag 15\t\t\tmapping(address => uint256) pu...\n      JUMPDEST \t\t\tmapping(address => uint256) pu...\n      PUSH 3\t\t\tmapping(address => uint256) pu...\n      PUSH 20\t\t\tmapping(address => uint256) pu...\n      MSTORE \t\t\tmapping(address => uint256) pu...\n      DUP1 \t\t\tmapping(address => uint256) pu...\n      PUSH 0\t\t\tmapping(address => uint256) pu...\n      MSTORE \t\t\tmapping(address => uint256) pu...\n      PUSH 40\t\t\tmapping(address => uint256) pu...\n      PUSH 0\t\t\tmapping(address => uint256) pu...\n      KECCAK256 \t\t\tmapping(address => uint256) pu...\n      PUSH 0\t\t\tmapping(address => uint256) pu...\n      SWAP2 \t\t\tmapping(address => uint256) pu...\n      POP \t\t\tmapping(address => uint256) pu...\n      SWAP1 \t\t\tmapping(address => uint256) pu...\n      POP \t\t\tmapping(address => uint256) pu...\n      SLOAD \t\t\tmapping(address => uint256) pu...\n      DUP2 \t\t\tmapping(address => uint256) pu...\n      JUMP \t\t\tmapping(address => uint256) pu...\n    tag 21\t\t\tfunction purchaseUmbrellas(uin...\n      JUMPDEST \t\t\tfunction purchaseUmbrellas(uin...\n      PUSH 0\t\t\t0\n      DUP2 \t\t\t_umbrellasToBuy\n      GT \t\t\t_umbrellasToBuy > 0\n      PUSH [tag] 48\t\t\trequire(_umbrellasToBuy > 0, \"...\n      JUMPI \t\t\trequire(_umbrellasToBuy > 0, \"...\n      PUSH 40\t\t\trequire(_umbrellasToBuy > 0, \"...\n      MLOAD \t\t\trequire(_umbrellasToBuy > 0, \"...\n      PUSH 8C379A000000000000000000000000000000000000000000000000000000000\t\t\trequire(_umbrellasToBuy > 0, \"...\n      DUP2 \t\t\trequire(_umbrellasToBuy > 0, \"...\n      MSTORE \t\t\trequire(_umbrellasToBuy > 0, \"...\n      PUSH 4\t\t\trequire(_umbrellasToBuy > 0, \"...\n      ADD \t\t\trequire(_umbrellasToBuy > 0, \"...\n      PUSH [tag] 49\t\t\trequire(_umbrellasToBuy > 0, \"...\n      SWAP1 \t\t\trequire(_umbrellasToBuy > 0, \"...\n      PUSH [tag] 50\t\t\trequire(_umbrellasToBuy > 0, \"...\n      JUMP \t\t\trequire(_umbrellasToBuy > 0, \"...\n    tag 49\t\t\trequire(_umbrellasToBuy > 0, \"...\n      JUMPDEST \t\t\trequire(_umbrellasToBuy > 0, \"...\n      PUSH 40\t\t\trequire(_umbrellasToBuy > 0, \"...\n      MLOAD \t\t\trequire(_umbrellasToBuy > 0, \"...\n      DUP1 \t\t\trequire(_umbrellasToBuy > 0, \"...\n      SWAP2 \t\t\trequire(_umbrellasToBuy > 0, \"...\n      SUB \t\t\trequire(_umbrellasToBuy > 0, \"...\n      SWAP1 \t\t\trequire(_umbrellasToBuy > 0, \"...\n      REVERT \t\t\trequire(_umbrellasToBuy > 0, \"...\n    tag 48\t\t\trequire(_umbrellasToBuy > 0, \"...\n      JUMPDEST \t\t\trequire(_umbrellasToBuy > 0, \"...\n      PUSH 1\t\t\tumbrellaPrice\n      SLOAD \t\t\tumbrellaPrice\n      DUP2 \t\t\t_umbrellasToBuy\n      PUSH [tag] 51\t\t\t_umbrellasToBuy * umbrellaPric...\n      SWAP2 \t\t\t_umbrellasToBuy * umbrellaPric...\n      SWAP1 \t\t\t_umbrellasToBuy * umbrellaPric...\n      PUSH [tag] 52\t\t\t_umbrellasToBuy * umbrellaPric...\n      JUMP \t\t\t_umbrellasToBuy * umbrellaPric...\n    tag 51\t\t\t_umbrellasToBuy * umbrellaPric...\n      JUMPDEST \t\t\t_umbrellasToBuy * umbrellaPric...\n      CALLVALUE \t\t\tmsg.value\n      LT \t\t\tmsg.value >= _umbrellasToBuy *...\n      ISZERO \t\t\tmsg.value >= _umbrellasToBuy *...\n      PUSH [tag] 53\t\t\trequire(msg.value >= _umbrella...\n      JUMPI \t\t\trequire(msg.value >= _umbrella...\n      PUSH 40\t\t\trequire(msg.value >= _umbrella...\n      MLOAD \t\t\trequire(msg.value >= _umbrella...\n      PUSH 8C379A000000000000000000000000000000000000000000000000000000000\t\t\trequire(msg.value >= _umbrella...\n      DUP2 \t\t\trequire(msg.value >= _umbrella...\n      MSTORE \t\t\trequire(msg.value >= _umbrella...\n      PUSH 4\t\t\trequire(msg.value >= _umbrella...\n      ADD \t\t\trequire(msg.value >= _umbrella...\n      PUSH [tag] 54\t\t\trequire(msg.value >= _umbrella...\n      SWAP1 \t\t\trequire(msg.value >= _umbrella...\n      PUSH [tag] 55\t\t\trequire(msg.value >= _umbrella...\n      JUMP \t\t\trequire(msg.value >= _umbrella...\n    tag 54\t\t\trequire(msg.value >= _umbrella...\n      JUMPDEST \t\t\trequire(msg.value >= _umbrella...\n      PUSH 40\t\t\trequire(msg.value >= _umbrella...\n      MLOAD \t\t\trequire(msg.value >= _umbrella...\n      DUP1 \t\t\trequire(msg.value >= _umbrella...\n      SWAP2 \t\t\trequire(msg.value >= _umbrella...\n      SUB \t\t\trequire(msg.value >= _umbrella...\n      SWAP1 \t\t\trequire(msg.value >= _umbrella...\n      REVERT \t\t\trequire(msg.value >= _umbrella...\n    tag 53\t\t\trequire(msg.value >= _umbrella...\n      JUMPDEST \t\t\trequire(msg.value >= _umbrella...\n      PUSH 0\t\t\tuint256 totalCost\n      PUSH 1\t\t\tumbrellaPrice\n      SLOAD \t\t\tumbrellaPrice\n      DUP3 \t\t\t_umbrellasToBuy\n      PUSH [tag] 56\t\t\t_umbrellasToBuy * umbrellaPric...\n      SWAP2 \t\t\t_umbrellasToBuy * umbrellaPric...\n      SWAP1 \t\t\t_umbrellasToBuy * umbrellaPric...\n      PUSH [tag] 52\t\t\t_umbrellasToBuy * umbrellaPric...\n      JUMP \t\t\t_umbrellasToBuy * umbrellaPric...\n    tag 56\t\t\t_umbrellasToBuy * umbrellaPric...\n      JUMPDEST \t\t\t_umbrellasToBuy * umbrellaPric...\n      SWAP1 \t\t\tuint256 totalCost = _umbrellas...\n      POP \t\t\tuint256 totalCost = _umbrellas...\n      PUSH 0\t\t\tuint256 refund\n      DUP2 \t\t\ttotalCost\n      CALLVALUE \t\t\tmsg.value\n      PUSH [tag] 57\t\t\tmsg.value - totalCost\n      SWAP2 \t\t\tmsg.value - totalCost\n      SWAP1 \t\t\tmsg.value - totalCost\n      PUSH [tag] 58\t\t\tmsg.value - totalCost\n      JUMP \t\t\tmsg.value - totalCost\n    tag 57\t\t\tmsg.value - totalCost\n      JUMPDEST \t\t\tmsg.value - totalCost\n      SWAP1 \t\t\tuint256 refund = msg.value - t...\n      POP \t\t\tuint256 refund = msg.value - t...\n      PUSH 0\t\t\t0\n      DUP2 \t\t\trefund\n      GT \t\t\trefund > 0\n      ISZERO \t\t\tif (refund > 0) {\\r\\n         ...\n      PUSH [tag] 59\t\t\tif (refund > 0) {\\r\\n         ...\n      JUMPI \t\t\tif (refund > 0) {\\r\\n         ...\n      DUP1 \t\t\trefund\n      PUSH 3\t\t\tuserBalances\n      PUSH 0\t\t\tuserBalances[msg.sender]\n      CALLER \t\t\tmsg.sender\n      PUSH FFFFFFFFFFFFFFFFFFFFFFFFFFFFFFFFFFFFFFFF\t\t\tuserBalances[msg.sender]\n      AND \t\t\tuserBalances[msg.sender]\n      PUSH FFFFFFFFFFFFFFFFFFFFFFFFFFFFFFFFFFFFFFFF\t\t\tuserBalances[msg.sender]\n      AND \t\t\tuserBalances[msg.sender]\n      DUP2 \t\t\tuserBalances[msg.sender]\n      MSTORE \t\t\tuserBalances[msg.sender]\n      PUSH 20\t\t\tuserBalances[msg.sender]\n      ADD \t\t\tuserBalances[msg.sender]\n      SWAP1 \t\t\tuserBalances[msg.sender]\n      DUP2 \t\t\tuserBalances[msg.sender]\n      MSTORE \t\t\tuserBalances[msg.sender]\n      PUSH 20\t\t\tuserBalances[msg.sender]\n      ADD \t\t\tuserBalances[msg.sender]\n      PUSH 0\t\t\tuserBalances[msg.sender]\n      KECCAK256 \t\t\tuserBalances[msg.sender]\n      PUSH 0\t\t\tuserBalances[msg.sender]\n      DUP3 \t\t\tuserBalances[msg.sender] += re...\n      DUP3 \t\t\tuserBalances[msg.sender] += re...\n      SLOAD \t\t\tuserBalances[msg.sender] += re...\n      PUSH [tag] 60\t\t\tuserBalances[msg.sender] += re...\n      SWAP2 \t\t\tuserBalances[msg.sender] += re...\n      SWAP1 \t\t\tuserBalances[msg.sender] += re...\n      PUSH [tag] 61\t\t\tuserBalances[msg.sender] += re...\n      JUMP \t\t\tuserBalances[msg.sender] += re...\n    tag 60\t\t\tuserBalances[msg.sender] += re...\n      JUMPDEST \t\t\tuserBalances[msg.sender] += re...\n      SWAP3 \t\t\tuserBalances[msg.sender] += re...\n      POP \t\t\tuserBalances[msg.sender] += re...\n      POP \t\t\tuserBalances[msg.sender] += re...\n      DUP2 \t\t\tuserBalances[msg.sender] += re...\n      SWAP1 \t\t\tuserBalances[msg.sender] += re...\n      SSTORE \t\t\tuserBalances[msg.sender] += re...\n      POP \t\t\tuserBalances[msg.sender] += re...\n    tag 59\t\t\tif (refund > 0) {\\r\\n         ...\n      JUMPDEST \t\t\tif (refund > 0) {\\r\\n         ...\n      DUP3 \t\t\t_umbrellasToBuy\n      PUSH 4\t\t\tuserUmbrellas\n      PUSH 0\t\t\tuserUmbrellas[msg.sender]\n      CALLER \t\t\tmsg.sender\n      PUSH FFFFFFFFFFFFFFFFFFFFFFFFFFFFFFFFFFFFFFFF\t\t\tuserUmbrellas[msg.sender]\n      AND \t\t\tuserUmbrellas[msg.sender]\n      PUSH FFFFFFFFFFFFFFFFFFFFFFFFFFFFFFFFFFFFFFFF\t\t\tuserUmbrellas[msg.sender]\n      AND \t\t\tuserUmbrellas[msg.sender]\n      DUP2 \t\t\tuserUmbrellas[msg.sender]\n      MSTORE \t\t\tuserUmbrellas[msg.sender]\n      PUSH 20\t\t\tuserUmbrellas[msg.sender]\n      ADD \t\t\tuserUmbrellas[msg.sender]\n      SWAP1 \t\t\tuserUmbrellas[msg.sender]\n      DUP2 \t\t\tuserUmbrellas[msg.sender]\n      MSTORE \t\t\tuserUmbrellas[msg.sender]\n      PUSH 20\t\t\tuserUmbrellas[msg.sender]\n      ADD \t\t\tuserUmbrellas[msg.sender]\n      PUSH 0\t\t\tuserUmbrellas[msg.sender]\n      KECCAK256 \t\t\tuserUmbrellas[msg.sender]\n      PUSH 0\t\t\tuserUmbrellas[msg.sender]\n      DUP3 \t\t\tuserUmbrellas[msg.sender] += _...\n      DUP3 \t\t\tuserUmbrellas[msg.sender] += _...\n      SLOAD \t\t\tuserUmbrellas[msg.sender] += _...\n      PUSH [tag] 62\t\t\tuserUmbrellas[msg.sender] += _...\n      SWAP2 \t\t\tuserUmbrellas[msg.sender] += _...\n      SWAP1 \t\t\tuserUmbrellas[msg.sender] += _...\n      PUSH [tag] 61\t\t\tuserUmbrellas[msg.sender] += _...\n      JUMP \t\t\tuserUmbrellas[msg.sender] += _...\n    tag 62\t\t\tuserUmbrellas[msg.sender] += _...\n      JUMPDEST \t\t\tuserUmbrellas[msg.sender] += _...\n      SWAP3 \t\t\tuserUmbrellas[msg.sender] += _...\n      POP \t\t\tuserUmbrellas[msg.sender] += _...\n      POP \t\t\tuserUmbrellas[msg.sender] += _...\n      DUP2 \t\t\tuserUmbrellas[msg.sender] += _...\n      SWAP1 \t\t\tuserUmbrellas[msg.sender] += _...\n      SSTORE \t\t\tuserUmbrellas[msg.sender] += _...\n      POP \t\t\tuserUmbrellas[msg.sender] += _...\n      DUP3 \t\t\t_umbrellasToBuy\n      PUSH 2\t\t\ttotalUmbrellas\n      PUSH 0\t\t\ttotalUmbrellas\n      DUP3 \t\t\ttotalUmbrellas -= _umbrellasTo...\n      DUP3 \t\t\ttotalUmbrellas -= _umbrellasTo...\n      SLOAD \t\t\ttotalUmbrellas -= _umbrellasTo...\n      PUSH [tag] 63\t\t\ttotalUmbrellas -= _umbrellasTo...\n      SWAP2 \t\t\ttotalUmbrellas -= _umbrellasTo...\n      SWAP1 \t\t\ttotalUmbrellas -= _umbrellasTo...\n      PUSH [tag] 58\t\t\ttotalUmbrellas -= _umbrellasTo...\n      JUMP \t\t\ttotalUmbrellas -= _umbrellasTo...\n    tag 63\t\t\ttotalUmbrellas -= _umbrellasTo...\n      JUMPDEST \t\t\ttotalUmbrellas -= _umbrellasTo...\n      SWAP3 \t\t\ttotalUmbrellas -= _umbrellasTo...\n      POP \t\t\ttotalUmbrellas -= _umbrellasTo...\n      POP \t\t\ttotalUmbrellas -= _umbrellasTo...\n      DUP2 \t\t\ttotalUmbrellas -= _umbrellasTo...\n      SWAP1 \t\t\ttotalUmbrellas -= _umbrellasTo...\n      SSTORE \t\t\ttotalUmbrellas -= _umbrellasTo...\n      POP \t\t\ttotalUmbrellas -= _umbrellasTo...\n      CALLER \t\t\tmsg.sender\n      PUSH FFFFFFFFFFFFFFFFFFFFFFFFFFFFFFFFFFFFFFFF\t\t\tUmbrellaPurchased(msg.sender, ...\n      AND \t\t\tUmbrellaPurchased(msg.sender, ...\n      PUSH 5F9461B4052CF2CE00A877D19C1972478D95C7C7113DF56DE4CE3A7CF85FAF0A\t\t\tUmbrellaPurchased(msg.sender, ...\n      DUP5 \t\t\t_umbrellasToBuy\n      PUSH 3\t\t\tuserBalances\n      PUSH 0\t\t\tuserBalances[msg.sender]\n      CALLER \t\t\tmsg.sender\n      PUSH FFFFFFFFFFFFFFFFFFFFFFFFFFFFFFFFFFFFFFFF\t\t\tuserBalances[msg.sender]\n      AND \t\t\tuserBalances[msg.sender]\n      PUSH FFFFFFFFFFFFFFFFFFFFFFFFFFFFFFFFFFFFFFFF\t\t\tuserBalances[msg.sender]\n      AND \t\t\tuserBalances[msg.sender]\n      DUP2 \t\t\tuserBalances[msg.sender]\n      MSTORE \t\t\tuserBalances[msg.sender]\n      PUSH 20\t\t\tuserBalances[msg.sender]\n      ADD \t\t\tuserBalances[msg.sender]\n      SWAP1 \t\t\tuserBalances[msg.sender]\n      DUP2 \t\t\tuserBalances[msg.sender]\n      MSTORE \t\t\tuserBalances[msg.sender]\n      PUSH 20\t\t\tuserBalances[msg.sender]\n      ADD \t\t\tuserBalances[msg.sender]\n      PUSH 0\t\t\tuserBalances[msg.sender]\n      KECCAK256 \t\t\tuserBalances[msg.sender]\n      SLOAD \t\t\tuserBalances[msg.sender]\n      PUSH 40\t\t\tUmbrellaPurchased(msg.sender, ...\n      MLOAD \t\t\tUmbrellaPurchased(msg.sender, ...\n      PUSH [tag] 64\t\t\tUmbrellaPurchased(msg.sender, ...\n      SWAP3 \t\t\tUmbrellaPurchased(msg.sender, ...\n      SWAP2 \t\t\tUmbrellaPurchased(msg.sender, ...\n      SWAP1 \t\t\tUmbrellaPurchased(msg.sender, ...\n      PUSH [tag] 65\t\t\tUmbrellaPurchased(msg.sender, ...\n      JUMP \t\t\tUmbrellaPurchased(msg.sender, ...\n    tag 64\t\t\tUmbrellaPurchased(msg.sender, ...\n      JUMPDEST \t\t\tUmbrellaPurchased(msg.sender, ...\n      PUSH 40\t\t\tUmbrellaPurchased(msg.sender, ...\n      MLOAD \t\t\tUmbrellaPurchased(msg.sender, ...\n      DUP1 \t\t\tUmbrellaPurchased(msg.sender, ...\n      SWAP2 \t\t\tUmbrellaPurchased(msg.sender, ...\n      SUB \t\t\tUmbrellaPurchased(msg.sender, ...\n      SWAP1 \t\t\tUmbrellaPurchased(msg.sender, ...\n      LOG2 \t\t\tUmbrellaPurchased(msg.sender, ...\n      POP \t\t\t{\\r\\n        require(_umbrella...\n      POP \t\t\t{\\r\\n        require(_umbrella...\n      POP \t\t\tfunction purchaseUmbrellas(uin...\n      JUMP \t\t\tfunction purchaseUmbrellas(uin...\n    tag 24\t\t\tfunction withdrawBalance() ext...\n      JUMPDEST \t\t\tfunction withdrawBalance() ext...\n      PUSH 0\t\t\tuint256 balance\n      PUSH 3\t\t\tuserBalances\n      PUSH 0\t\t\tuserBalances[msg.sender]\n      CALLER \t\t\tmsg.sender\n      PUSH FFFFFFFFFFFFFFFFFFFFFFFFFFFFFFFFFFFFFFFF\t\t\tuserBalances[msg.sender]\n      AND \t\t\tuserBalances[msg.sender]\n      PUSH FFFFFFFFFFFFFFFFFFFFFFFFFFFFFFFFFFFFFFFF\t\t\tuserBalances[msg.sender]\n      AND \t\t\tuserBalances[msg.sender]\n      DUP2 \t\t\tuserBalances[msg.sender]\n      MSTORE \t\t\tuserBalances[msg.sender]\n      PUSH 20\t\t\tuserBalances[msg.sender]\n      ADD \t\t\tuserBalances[msg.sender]\n      SWAP1 \t\t\tuserBalances[msg.sender]\n      DUP2 \t\t\tuserBalances[msg.sender]\n      MSTORE \t\t\tuserBalances[msg.sender]\n      PUSH 20\t\t\tuserBalances[msg.sender]\n      ADD \t\t\tuserBalances[msg.sender]\n      PUSH 0\t\t\tuserBalances[msg.sender]\n      KECCAK256 \t\t\tuserBalances[msg.sender]\n      SLOAD \t\t\tuserBalances[msg.sender]\n      SWAP1 \t\t\tuint256 balance = userBalances...\n      POP \t\t\tuint256 balance = userBalances...\n      PUSH 0\t\t\t0\n      DUP2 \t\t\tbalance\n      GT \t\t\tbalance > 0\n      PUSH [tag] 67\t\t\trequire(balance > 0, \"No balan...\n      JUMPI \t\t\trequire(balance > 0, \"No balan...\n      PUSH 40\t\t\trequire(balance > 0, \"No balan...\n      MLOAD \t\t\trequire(balance > 0, \"No balan...\n      PUSH 8C379A000000000000000000000000000000000000000000000000000000000\t\t\trequire(balance > 0, \"No balan...\n      DUP2 \t\t\trequire(balance > 0, \"No balan...\n      MSTORE \t\t\trequire(balance > 0, \"No balan...\n      PUSH 4\t\t\trequire(balance > 0, \"No balan...\n      ADD \t\t\trequire(balance > 0, \"No balan...\n      PUSH [tag] 68\t\t\trequire(balance > 0, \"No balan...\n      SWAP1 \t\t\trequire(balance > 0, \"No balan...\n      PUSH [tag] 69\t\t\trequire(balance > 0, \"No balan...\n      JUMP \t\t\trequire(balance > 0, \"No balan...\n    tag 68\t\t\trequire(balance > 0, \"No balan...\n      JUMPDEST \t\t\trequire(balance > 0, \"No balan...\n      PUSH 40\t\t\trequire(balance > 0, \"No balan...\n      MLOAD \t\t\trequire(balance > 0, \"No balan...\n      DUP1 \t\t\trequire(balance > 0, \"No balan...\n      SWAP2 \t\t\trequire(balance > 0, \"No balan...\n      SUB \t\t\trequire(balance > 0, \"No balan...\n      SWAP1 \t\t\trequire(balance > 0, \"No balan...\n      REVERT \t\t\trequire(balance > 0, \"No balan...\n    tag 67\t\t\trequire(balance > 0, \"No balan...\n      JUMPDEST \t\t\trequire(balance > 0, \"No balan...\n      PUSH 0\t\t\t0\n      PUSH 3\t\t\tuserBalances\n      PUSH 0\t\t\tuserBalances[msg.sender]\n      CALLER \t\t\tmsg.sender\n      PUSH FFFFFFFFFFFFFFFFFFFFFFFFFFFFFFFFFFFFFFFF\t\t\tuserBalances[msg.sender]\n      AND \t\t\tuserBalances[msg.sender]\n      PUSH FFFFFFFFFFFFFFFFFFFFFFFFFFFFFFFFFFFFFFFF\t\t\tuserBalances[msg.sender]\n      AND \t\t\tuserBalances[msg.sender]\n      DUP2 \t\t\tuserBalances[msg.sender]\n      MSTORE \t\t\tuserBalances[msg.sender]\n      PUSH 20\t\t\tuserBalances[msg.sender]\n      ADD \t\t\tuserBalances[msg.sender]\n      SWAP1 \t\t\tuserBalances[msg.sender]\n      DUP2 \t\t\tuserBalances[msg.sender]\n      MSTORE \t\t\tuserBalances[msg.sender]\n      PUSH 20\t\t\tuserBalances[msg.sender]\n      ADD \t\t\tuserBalances[msg.sender]\n      PUSH 0\t\t\tuserBalances[msg.sender]\n      KECCAK256 \t\t\tuserBalances[msg.sender]\n      DUP2 \t\t\tuserBalances[msg.sender] = 0\n      SWAP1 \t\t\tuserBalances[msg.sender] = 0\n      SSTORE \t\t\tuserBalances[msg.sender] = 0\n      POP \t\t\tuserBalances[msg.sender] = 0\n      CALLER \t\t\tmsg.sender\n      PUSH FFFFFFFFFFFFFFFFFFFFFFFFFFFFFFFFFFFFFFFF\t\t\tpayable(msg.sender).transfer\n      AND \t\t\tpayable(msg.sender).transfer\n      PUSH 8FC\t\t\tpayable(msg.sender).transfer(b...\n      DUP3 \t\t\tbalance\n      SWAP1 \t\t\tpayable(msg.sender).transfer(b...\n      DUP2 \t\t\tpayable(msg.sender).transfer(b...\n      ISZERO \t\t\tpayable(msg.sender).transfer(b...\n      MUL \t\t\tpayable(msg.sender).transfer(b...\n      SWAP1 \t\t\tpayable(msg.sender).transfer(b...\n      PUSH 40\t\t\tpayable(msg.sender).transfer(b...\n      MLOAD \t\t\tpayable(msg.sender).transfer(b...\n      PUSH 0\t\t\tpayable(msg.sender).transfer(b...\n      PUSH 40\t\t\tpayable(msg.sender).transfer(b...\n      MLOAD \t\t\tpayable(msg.sender).transfer(b...\n      DUP1 \t\t\tpayable(msg.sender).transfer(b...\n      DUP4 \t\t\tpayable(msg.sender).transfer(b...\n      SUB \t\t\tpayable(msg.sender).transfer(b...\n      DUP2 \t\t\tpayable(msg.sender).transfer(b...\n      DUP6 \t\t\tpayable(msg.sender).transfer(b...\n      DUP9 \t\t\tpayable(msg.sender).transfer(b...\n      DUP9 \t\t\tpayable(msg.sender).transfer(b...\n      CALL \t\t\tpayable(msg.sender).transfer(b...\n      SWAP4 \t\t\tpayable(msg.sender).transfer(b...\n      POP \t\t\tpayable(msg.sender).transfer(b...\n      POP \t\t\tpayable(msg.sender).transfer(b...\n      POP \t\t\tpayable(msg.sender).transfer(b...\n      POP \t\t\tpayable(msg.sender).transfer(b...\n      ISZERO \t\t\tpayable(msg.sender).transfer(b...\n      DUP1 \t\t\tpayable(msg.sender).transfer(b...\n      ISZERO \t\t\tpayable(msg.sender).transfer(b...\n      PUSH [tag] 71\t\t\tpayable(msg.sender).transfer(b...\n      JUMPI \t\t\tpayable(msg.sender).transfer(b...\n      RETURNDATASIZE \t\t\tpayable(msg.sender).transfer(b...\n      PUSH 0\t\t\tpayable(msg.sender).transfer(b...\n      DUP1 \t\t\tpayable(msg.sender).transfer(b...\n      RETURNDATACOPY \t\t\tpayable(msg.sender).transfer(b...\n      RETURNDATASIZE \t\t\tpayable(msg.sender).transfer(b...\n      PUSH 0\t\t\tpayable(msg.sender).transfer(b...\n      REVERT \t\t\tpayable(msg.sender).transfer(b...\n    tag 71\t\t\tpayable(msg.sender).transfer(b...\n      JUMPDEST \t\t\tpayable(msg.sender).transfer(b...\n      POP \t\t\tpayable(msg.sender).transfer(b...\n      POP \t\t\t{\\r\\n        uint256 balance =...\n      JUMP \t\t\tfunction withdrawBalance() ext...\n    tag 28\t\t\tmapping(address => uint256) pu...\n      JUMPDEST \t\t\tmapping(address => uint256) pu...\n      PUSH 4\t\t\tmapping(address => uint256) pu...\n      PUSH 20\t\t\tmapping(address => uint256) pu...\n      MSTORE \t\t\tmapping(address => uint256) pu...\n      DUP1 \t\t\tmapping(address => uint256) pu...\n      PUSH 0\t\t\tmapping(address => uint256) pu...\n      MSTORE \t\t\tmapping(address => uint256) pu...\n      PUSH 40\t\t\tmapping(address => uint256) pu...\n      PUSH 0\t\t\tmapping(address => uint256) pu...\n      KECCAK256 \t\t\tmapping(address => uint256) pu...\n      PUSH 0\t\t\tmapping(address => uint256) pu...\n      SWAP2 \t\t\tmapping(address => uint256) pu...\n      POP \t\t\tmapping(address => uint256) pu...\n      SWAP1 \t\t\tmapping(address => uint256) pu...\n      POP \t\t\tmapping(address => uint256) pu...\n      SLOAD \t\t\tmapping(address => uint256) pu...\n      DUP2 \t\t\tmapping(address => uint256) pu...\n      JUMP \t\t\tmapping(address => uint256) pu...\n    tag 32\t\t\taddress public owner\n      JUMPDEST \t\t\taddress public owner\n      PUSH 0\t\t\taddress public owner\n      DUP1 \t\t\taddress public owner\n      SLOAD \t\t\taddress public owner\n      SWAP1 \t\t\taddress public owner\n      PUSH 100\t\t\taddress public owner\n      EXP \t\t\taddress public owner\n      SWAP1 \t\t\taddress public owner\n      DIV \t\t\taddress public owner\n      PUSH FFFFFFFFFFFFFFFFFFFFFFFFFFFFFFFFFFFFFFFF\t\t\taddress public owner\n      AND \t\t\taddress public owner\n      DUP2 \t\t\taddress public owner\n      JUMP \t\t\taddress public owner\n    tag 37\t\t\tuint256 public totalUmbrellas\n      JUMPDEST \t\t\tuint256 public totalUmbrellas\n      PUSH 2\t\t\tuint256 public totalUmbrellas\n      SLOAD \t\t\tuint256 public totalUmbrellas\n      DUP2 \t\t\tuint256 public totalUmbrellas\n      JUMP \t\t\tuint256 public totalUmbrellas\n    tag 42\t\t\tfunction refillUmbrellas(uint2...\n      JUMPDEST \t\t\tfunction refillUmbrellas(uint2...\n      PUSH 0\t\t\towner\n      DUP1 \t\t\towner\n      SLOAD \t\t\towner\n      SWAP1 \t\t\towner\n      PUSH 100\t\t\towner\n      EXP \t\t\towner\n      SWAP1 \t\t\towner\n      DIV \t\t\towner\n      PUSH FFFFFFFFFFFFFFFFFFFFFFFFFFFFFFFFFFFFFFFF\t\t\towner\n      AND \t\t\towner\n      PUSH FFFFFFFFFFFFFFFFFFFFFFFFFFFFFFFFFFFFFFFF\t\t\tmsg.sender == owner\n      AND \t\t\tmsg.sender == owner\n      CALLER \t\t\tmsg.sender\n      PUSH FFFFFFFFFFFFFFFFFFFFFFFFFFFFFFFFFFFFFFFF\t\t\tmsg.sender == owner\n      AND \t\t\tmsg.sender == owner\n      EQ \t\t\tmsg.sender == owner\n      PUSH [tag] 73\t\t\trequire(msg.sender == owner, \"...\n      JUMPI \t\t\trequire(msg.sender == owner, \"...\n      PUSH 40\t\t\trequire(msg.sender == owner, \"...\n      MLOAD \t\t\trequire(msg.sender == owner, \"...\n      PUSH 8C379A000000000000000000000000000000000000000000000000000000000\t\t\trequire(msg.sender == owner, \"...\n      DUP2 \t\t\trequire(msg.sender == owner, \"...\n      MSTORE \t\t\trequire(msg.sender == owner, \"...\n      PUSH 4\t\t\trequire(msg.sender == owner, \"...\n      ADD \t\t\trequire(msg.sender == owner, \"...\n      PUSH [tag] 74\t\t\trequire(msg.sender == owner, \"...\n      SWAP1 \t\t\trequire(msg.sender == owner, \"...\n      PUSH [tag] 75\t\t\trequire(msg.sender == owner, \"...\n      JUMP \t\t\trequire(msg.sender == owner, \"...\n    tag 74\t\t\trequire(msg.sender == owner, \"...\n      JUMPDEST \t\t\trequire(msg.sender == owner, \"...\n      PUSH 40\t\t\trequire(msg.sender == owner, \"...\n      MLOAD \t\t\trequire(msg.sender == owner, \"...\n      DUP1 \t\t\trequire(msg.sender == owner, \"...\n      SWAP2 \t\t\trequire(msg.sender == owner, \"...\n      SUB \t\t\trequire(msg.sender == owner, \"...\n      SWAP1 \t\t\trequire(msg.sender == owner, \"...\n      REVERT \t\t\trequire(msg.sender == owner, \"...\n    tag 73\t\t\trequire(msg.sender == owner, \"...\n      JUMPDEST \t\t\trequire(msg.sender == owner, \"...\n      DUP1 \t\t\t_amount\n      PUSH 2\t\t\ttotalUmbrellas\n      PUSH 0\t\t\ttotalUmbrellas\n      DUP3 \t\t\ttotalUmbrellas += _amount\n      DUP3 \t\t\ttotalUmbrellas += _amount\n      SLOAD \t\t\ttotalUmbrellas += _amount\n      PUSH [tag] 77\t\t\ttotalUmbrellas += _amount\n      SWAP2 \t\t\ttotalUmbrellas += _amount\n      SWAP1 \t\t\ttotalUmbrellas += _amount\n      PUSH [tag] 61\t\t\ttotalUmbrellas += _amount\n      JUMP \t\t\ttotalUmbrellas += _amount\n    tag 77\t\t\ttotalUmbrellas += _amount\n      JUMPDEST \t\t\ttotalUmbrellas += _amount\n      SWAP3 \t\t\ttotalUmbrellas += _amount\n      POP \t\t\ttotalUmbrellas += _amount\n      POP \t\t\ttotalUmbrellas += _amount\n      DUP2 \t\t\ttotalUmbrellas += _amount\n      SWAP1 \t\t\ttotalUmbrellas += _amount\n      SSTORE \t\t\ttotalUmbrellas += _amount\n      POP \t\t\ttotalUmbrellas += _amount\n      POP \t\t\tfunction refillUmbrellas(uint2...\n      JUMP \t\t\tfunction refillUmbrellas(uint2...\n    tag 45\t\t\tuint256 public umbrellaPrice\n      JUMPDEST \t\t\tuint256 public umbrellaPrice\n      PUSH 1\t\t\tuint256 public umbrellaPrice\n      SLOAD \t\t\tuint256 public umbrellaPrice\n      DUP2 \t\t\tuint256 public umbrellaPrice\n      JUMP \t\t\tuint256 public umbrellaPrice\n    tag 79\t\t\tine {\\r\\n    address public ow...\n      JUMPDEST \t\t\tine {\\r\\n    address public ow...\n      PUSH 0\t\t\tm\n      DUP1 \t\t\t \n      REVERT \t\t\tlas;\\r\\n    ma\n    tag 81\t\t\tdress indexed buyer, uint256 u...\n      JUMPDEST \t\t\tdress indexed buyer, uint256 u...\n      PUSH 0\t\t\tsBought\n      PUSH FFFFFFFFFFFFFFFFFFFFFFFFFFFFFFFFFFFFFFFF\t\t\t   constructor(uint256 _initia...\n      DUP3 \t\t\t);\\r\\n\\r\n      AND \t\t\tning);\\r\\n\\r\\n    constructor(...\n      SWAP1 \t\t\talanceRemaining);\\r\\n\\r\\n    c...\n      POP \t\t\talanceRemaining);\\r\\n\\r\\n    c...\n      SWAP2 \t\t\tdress indexed buyer, uint256 u...\n      SWAP1 \t\t\tdress indexed buyer, uint256 u...\n      POP \t\t\tdress indexed buyer, uint256 u...\n      JUMP \t\t\tdress indexed buyer, uint256 u...\n    tag 82\t\t\tialUmbrellaPrice) {\\r\\n       ...\n      JUMPDEST \t\t\tialUmbrellaPrice) {\\r\\n       ...\n      PUSH 0\t\t\tmsg.sen\n      PUSH [tag] 106\t\t\trellas = _initialUmbrell\n      DUP3 \t\t\tmbrel\n      PUSH [tag] 81\t\t\trellas = _initialUmbrell\n      JUMP \t\t\trellas = _initialUmbrell\n    tag 106\t\t\trellas = _initialUmbrell\n      JUMPDEST \t\t\trellas = _initialUmbrell\n      SWAP1 \t\t\t   totalUmbrellas = _initialUm...\n      POP \t\t\t   totalUmbrellas = _initialUm...\n      SWAP2 \t\t\tialUmbrellaPrice) {\\r\\n       ...\n      SWAP1 \t\t\tialUmbrellaPrice) {\\r\\n       ...\n      POP \t\t\tialUmbrellaPrice) {\\r\\n       ...\n      JUMP \t\t\tialUmbrellaPrice) {\\r\\n       ...\n    tag 83\t\t\t umbrellaPrice = _initialUmbre...\n      JUMPDEST \t\t\t umbrellaPrice = _initialUmbre...\n      PUSH [tag] 108\t\t\t) {\\r\\n        require(msg\n      DUP2 \t\t\tre(ms\n      PUSH [tag] 82\t\t\t) {\\r\\n        require(msg\n      JUMP \t\t\t) {\\r\\n        require(msg\n    tag 108\t\t\t) {\\r\\n        require(msg\n      JUMPDEST \t\t\t) {\\r\\n        require(msg\n      DUP2 \t\t\tyOwne\n      EQ \t\t\tonlyOwner() {\\r\\n        requi...\n      PUSH [tag] 109\t\t\t modifier onlyOwner() {\\r\\n   ...\n      JUMPI \t\t\t modifier onlyOwner() {\\r\\n   ...\n      PUSH 0\t\t\tr\n      DUP1 \t\t\tw\n      REVERT \t\t\ter == owner,\n    tag 109\t\t\t modifier onlyOwner() {\\r\\n   ...\n      JUMPDEST \t\t\t modifier onlyOwner() {\\r\\n   ...\n      POP \t\t\t umbrellaPrice = _initialUmbre...\n      JUMP \t\t\t umbrellaPrice = _initialUmbre...\n    tag 84\t\t\ter can perform this action\");\\...\n      JUMPDEST \t\t\ter can perform this action\");\\...\n      PUSH 0\t\t\t }\\r\\n\\r\n      DUP2 \t\t\tint256\n      CALLDATALOAD \t\t\tseUmbrellas(uint256 \n      SWAP1 \t\t\ton purchaseUmbrellas(uint256 \n      POP \t\t\ton purchaseUmbrellas(uint256 \n      PUSH [tag] 111\t\t\tsToBuy) external payable {\\r\\n...\n      DUP2 \t\t\t\\n    \n      PUSH [tag] 83\t\t\tsToBuy) external payable {\\r\\n...\n      JUMP \t\t\tsToBuy) external payable {\\r\\n...\n    tag 111\t\t\tsToBuy) external payable {\\r\\n...\n      JUMPDEST \t\t\tsToBuy) external payable {\\r\\n...\n      SWAP3 \t\t\ter can perform this action\");\\...\n      SWAP2 \t\t\ter can perform this action\");\\...\n      POP \t\t\ter can perform this action\");\\...\n      POP \t\t\ter can perform this action\");\\...\n      JUMP \t\t\ter can perform this action\");\\...\n    tag 14\t\t\tumbrellasToBuy > 0, \"You must ...\n      JUMPDEST \t\t\tumbrellasToBuy > 0, \"You must ...\n      PUSH 0\t\t\t\\n     \n      PUSH 20\t\t\tmb\n      DUP3 \t\t\tlasToBuy \n      DUP5 \t\t\t= _umbr\n      SUB \t\t\tue >= _umbrellasToBuy *\n      SLT \t\t\t.value >= _umbrellasToBuy * um...\n      ISZERO \t\t\tmsg.value >= _umbrellasToBuy *...\n      PUSH [tag] 113\t\t\tmsg.value >= _umbrellasToBuy *...\n      JUMPI \t\t\tmsg.value >= _umbrellasToBuy *...\n      PUSH [tag] 114\t\t\taPrice, \"Insufficient funds\");...\n      PUSH [tag] 79\t\t\taPrice, \"Insufficient funds\");...\n      JUMP \t\t\taPrice, \"Insufficient funds\");...\n    tag 114\t\t\taPrice, \"Insufficient funds\");...\n      JUMPDEST \t\t\taPrice, \"Insufficient funds\");...\n    tag 113\t\t\tmsg.value >= _umbrellasToBuy *...\n      JUMPDEST \t\t\tmsg.value >= _umbrellasToBuy *...\n      PUSH 0\t\t\t \n      PUSH [tag] 115\t\t\t\\r\\n        if (refund > 0) {\\...\n      DUP5 \t\t\tBalance\n      DUP3 \t\t\t     u\n      DUP6 \t\t\t {\\r\\n     \n      ADD \t\t\t> 0) {\\r\\n            us\n      PUSH [tag] 84\t\t\t\\r\\n        if (refund > 0) {\\...\n      JUMP \t\t\t\\r\\n        if (refund > 0) {\\...\n    tag 115\t\t\t\\r\\n        if (refund > 0) {\\...\n      JUMPDEST \t\t\t\\r\\n        if (refund > 0) {\\...\n      SWAP2 \t\t\ttalCost;\\r\\n\\r\\n        if (re...\n      POP \t\t\ttalCost;\\r\\n\\r\\n        if (re...\n      POP \t\t\tce;\\r\\n        uint256 refund ...\n      SWAP3 \t\t\tumbrellasToBuy > 0, \"You must ...\n      SWAP2 \t\t\tumbrellasToBuy > 0, \"You must ...\n      POP \t\t\tumbrellasToBuy > 0, \"You must ...\n      POP \t\t\tumbrellasToBuy > 0, \"You must ...\n      JUMP \t\t\tumbrellasToBuy > 0, \"You must ...\n    tag 85\t\t\t\\r\\n        }\\r\\n\\r\\n        u...\n      JUMPDEST \t\t\t\\r\\n        }\\r\\n\\r\\n        u...\n      PUSH 0\t\t\tmsg.sen\n      DUP2 \t\t\ty;\\r\\n \n      SWAP1 \t\t\tbrellasToBuy;\\r\\n \n      POP \t\t\tbrellasToBuy;\\r\\n \n      SWAP2 \t\t\t\\r\\n        }\\r\\n\\r\\n        u...\n      SWAP1 \t\t\t\\r\\n        }\\r\\n\\r\\n        u...\n      POP \t\t\t\\r\\n        }\\r\\n\\r\\n        u...\n      JUMP \t\t\t\\r\\n        }\\r\\n\\r\\n        u...\n    tag 86\t\t\tUmbrellas -= _umbrellasToBuy;\\...\n      JUMPDEST \t\t\tUmbrellas -= _umbrellasToBuy;\\...\n      PUSH [tag] 118\t\t\toBuy, userBalances[msg.s\n      DUP2 \t\t\t[msg.\n      PUSH [tag] 85\t\t\toBuy, userBalances[msg.s\n      JUMP \t\t\toBuy, userBalances[msg.s\n    tag 118\t\t\toBuy, userBalances[msg.s\n      JUMPDEST \t\t\toBuy, userBalances[msg.s\n      DUP3 \t\t\tlla\n      MSTORE \t\t\t _umbrellasToBuy, userBalances...\n      POP \t\t\tUmbrellas -= _umbrellasToBuy;\\...\n      POP \t\t\tUmbrellas -= _umbrellasToBuy;\\...\n      JUMP \t\t\tUmbrellas -= _umbrellasToBuy;\\...\n    tag 17\t\t\t }\\r\\n\\r\\n    function withdra...\n      JUMPDEST \t\t\t }\\r\\n\\r\\n    function withdra...\n      PUSH 0\t\t\tende\n      PUSH 20\t\t\t\"N\n      DUP3 \t\t\tlance > 0\n      ADD \t\t\te(balance > 0, \"No\n      SWAP1 \t\t\t  require(balance > 0, \"No\n      POP \t\t\t  require(balance > 0, \"No\n      PUSH [tag] 120\t\t\to withdraw\");\\r\\n        userB...\n      PUSH 0\t\t\te\n      DUP4 \t\t\t     paya\n      ADD \t\t\t\\n        payable(\n      DUP5 \t\t\ter] = \n      PUSH [tag] 86\t\t\to withdraw\");\\r\\n        userB...\n      JUMP \t\t\to withdraw\");\\r\\n        userB...\n    tag 120\t\t\to withdraw\");\\r\\n        userB...\n      JUMPDEST \t\t\to withdraw\");\\r\\n        userB...\n      SWAP3 \t\t\t }\\r\\n\\r\\n    function withdra...\n      SWAP2 \t\t\t }\\r\\n\\r\\n    function withdra...\n      POP \t\t\t }\\r\\n\\r\\n    function withdra...\n      POP \t\t\t }\\r\\n\\r\\n    function withdra...\n      JUMP \t\t\t }\\r\\n\\r\\n    function withdra...\n    tag 87\t\t\tansfer(balance);\\r\\n    }\\r\\n\\...\n      JUMPDEST \t\t\tansfer(balance);\\r\\n    }\\r\\n\\...\n      PUSH [tag] 122\t\t\texternal onlyOwner {\\r\\n  \n      DUP2 \t\t\t {\\r\\n \n      PUSH [tag] 85\t\t\texternal onlyOwner {\\r\\n  \n      JUMP \t\t\texternal onlyOwner {\\r\\n  \n    tag 122\t\t\texternal onlyOwner {\\r\\n  \n      JUMPDEST \t\t\texternal onlyOwner {\\r\\n  \n      DUP2 \t\t\tmount\n      EQ \t\t\t _amount) external onlyOwner {...\n      PUSH [tag] 123\t\t\tas(uint256 _amount) external o...\n      JUMPI \t\t\tas(uint256 _amount) external o...\n      PUSH 0\t\t\te\n      DUP1 \t\t\tm\n      REVERT \t\t\t totalUmbrel\n    tag 123\t\t\tas(uint256 _amount) external o...\n      JUMPDEST \t\t\tas(uint256 _amount) external o...\n      POP \t\t\tansfer(balance);\\r\\n    }\\r\\n\\...\n      JUMP \t\t\tansfer(balance);\\r\\n    }\\r\\n\\...\n    tag 88\t\t\t;\\r\\n    }\\r\\n}\\r\\n\n      JUMPDEST \t\t\t;\\r\\n    }\\r\\n}\\r\\n\n      PUSH 0\t\t\t\n      DUP2 \t\t\t\n      CALLDATALOAD \t\t\t\n      SWAP1 \t\t\t\n      POP \t\t\t\n      PUSH [tag] 125\t\t\t\n      DUP2 \t\t\t\n      PUSH [tag] 87\t\t\t\n      JUMP \t\t\t\n    tag 125\t\t\t\n      JUMPDEST \t\t\t\n      SWAP3 \t\t\t;\\r\\n    }\\r\\n}\\r\\n\n      SWAP2 \t\t\t;\\r\\n    }\\r\\n}\\r\\n\n      POP \t\t\t;\\r\\n    }\\r\\n}\\r\\n\n      POP \t\t\t;\\r\\n    }\\r\\n}\\r\\n\n      JUMP \t\t\t;\\r\\n    }\\r\\n}\\r\\n\n    tag 20\t\t\t\n      JUMPDEST \t\t\t\n      PUSH 0\t\t\t\n      PUSH 20\t\t\t\n      DUP3 \t\t\t\n      DUP5 \t\t\t\n      SUB \t\t\t\n      SLT \t\t\t\n      ISZERO \t\t\t\n      PUSH [tag] 127\t\t\t\n      JUMPI \t\t\t\n      PUSH [tag] 128\t\t\t\n      PUSH [tag] 79\t\t\t\n      JUMP \t\t\t\n    tag 128\t\t\t\n      JUMPDEST \t\t\t\n    tag 127\t\t\t\n      JUMPDEST \t\t\t\n      PUSH 0\t\t\t\n      PUSH [tag] 129\t\t\t\n      DUP5 \t\t\t\n      DUP3 \t\t\t\n      DUP6 \t\t\t\n      ADD \t\t\t\n      PUSH [tag] 88\t\t\t\n      JUMP \t\t\t\n    tag 129\t\t\t\n      JUMPDEST \t\t\t\n      SWAP2 \t\t\t\n      POP \t\t\t\n      POP \t\t\t\n      SWAP3 \t\t\t\n      SWAP2 \t\t\t\n      POP \t\t\t\n      POP \t\t\t\n      JUMP \t\t\t\n    tag 89\t\t\t\n      JUMPDEST \t\t\t\n      PUSH [tag] 131\t\t\t\n      DUP2 \t\t\t\n      PUSH [tag] 82\t\t\t\n      JUMP \t\t\t\n    tag 131\t\t\t\n      JUMPDEST \t\t\t\n      DUP3 \t\t\t\n      MSTORE \t\t\t\n      POP \t\t\t\n      POP \t\t\t\n      JUMP \t\t\t\n    tag 34\t\t\t\n      JUMPDEST \t\t\t\n      PUSH 0\t\t\t\n      PUSH 20\t\t\t\n      DUP3 \t\t\t\n      ADD \t\t\t\n      SWAP1 \t\t\t\n      POP \t\t\t\n      PUSH [tag] 133\t\t\t\n      PUSH 0\t\t\t\n      DUP4 \t\t\t\n      ADD \t\t\t\n      DUP5 \t\t\t\n      PUSH [tag] 89\t\t\t\n      JUMP \t\t\t\n    tag 133\t\t\t\n      JUMPDEST \t\t\t\n      SWAP3 \t\t\t\n      SWAP2 \t\t\t\n      POP \t\t\t\n      POP \t\t\t\n      JUMP \t\t\t\n    tag 90\t\t\t\n      JUMPDEST \t\t\t\n      PUSH 0\t\t\t\n      DUP3 \t\t\t\n      DUP3 \t\t\t\n      MSTORE \t\t\t\n      PUSH 20\t\t\t\n      DUP3 \t\t\t\n      ADD \t\t\t\n      SWAP1 \t\t\t\n      POP \t\t\t\n      SWAP3 \t\t\t\n      SWAP2 \t\t\t\n      POP \t\t\t\n      POP \t\t\t\n      JUMP \t\t\t\n    tag 91\t\t\t\n      JUMPDEST \t\t\t\n      PUSH 596F75206D75737420627579206174206C65617374206F6E6520756D6272656C\t\t\t\n      PUSH 0\t\t\t\n      DUP3 \t\t\t\n      ADD \t\t\t\n      MSTORE \t\t\t\n      PUSH 6C61000000000000000000000000000000000000000000000000000000000000\t\t\t\n      PUSH 20\t\t\t\n      DUP3 \t\t\t\n      ADD \t\t\t\n      MSTORE \t\t\t\n      POP \t\t\t\n      JUMP \t\t\t\n    tag 92\t\t\t\n      JUMPDEST \t\t\t\n      PUSH 0\t\t\t\n      PUSH [tag] 137\t\t\t\n      PUSH 22\t\t\t\n      DUP4 \t\t\t\n      PUSH [tag] 90\t\t\t\n      JUMP \t\t\t\n    tag 137\t\t\t\n      JUMPDEST \t\t\t\n      SWAP2 \t\t\t\n      POP \t\t\t\n      PUSH [tag] 138\t\t\t\n      DUP3 \t\t\t\n      PUSH [tag] 91\t\t\t\n      JUMP \t\t\t\n    tag 138\t\t\t\n      JUMPDEST \t\t\t\n      PUSH 40\t\t\t\n      DUP3 \t\t\t\n      ADD \t\t\t\n      SWAP1 \t\t\t\n      POP \t\t\t\n      SWAP2 \t\t\t\n      SWAP1 \t\t\t\n      POP \t\t\t\n      JUMP \t\t\t\n    tag 50\t\t\t\n      JUMPDEST \t\t\t\n      PUSH 0\t\t\t\n      PUSH 20\t\t\t\n      DUP3 \t\t\t\n      ADD \t\t\t\n      SWAP1 \t\t\t\n      POP \t\t\t\n      DUP2 \t\t\t\n      DUP2 \t\t\t\n      SUB \t\t\t\n      PUSH 0\t\t\t\n      DUP4 \t\t\t\n      ADD \t\t\t\n      MSTORE \t\t\t\n      PUSH [tag] 140\t\t\t\n      DUP2 \t\t\t\n      PUSH [tag] 92\t\t\t\n      JUMP \t\t\t\n    tag 140\t\t\t\n      JUMPDEST \t\t\t\n      SWAP1 \t\t\t\n      POP \t\t\t\n      SWAP2 \t\t\t\n      SWAP1 \t\t\t\n      POP \t\t\t\n      JUMP \t\t\t\n    tag 93\t\t\t\n      JUMPDEST \t\t\t\n      PUSH 4E487B7100000000000000000000000000000000000000000000000000000000\t\t\t\n      PUSH 0\t\t\t\n      MSTORE \t\t\t\n      PUSH 11\t\t\t\n      PUSH 4\t\t\t\n      MSTORE \t\t\t\n      PUSH 24\t\t\t\n      PUSH 0\t\t\t\n      REVERT \t\t\t\n    tag 52\t\t\t\n      JUMPDEST \t\t\t\n      PUSH 0\t\t\t\n      PUSH [tag] 143\t\t\t\n      DUP3 \t\t\t\n      PUSH [tag] 85\t\t\t\n      JUMP \t\t\t\n    tag 143\t\t\t\n      JUMPDEST \t\t\t\n      SWAP2 \t\t\t\n      POP \t\t\t\n      PUSH [tag] 144\t\t\t\n      DUP4 \t\t\t\n      PUSH [tag] 85\t\t\t\n      JUMP \t\t\t\n    tag 144\t\t\t\n      JUMPDEST \t\t\t\n      SWAP3 \t\t\t\n      POP \t\t\t\n      DUP3 \t\t\t\n      DUP3 \t\t\t\n      MUL \t\t\t\n      PUSH [tag] 145\t\t\t\n      DUP2 \t\t\t\n      PUSH [tag] 85\t\t\t\n      JUMP \t\t\t\n    tag 145\t\t\t\n      JUMPDEST \t\t\t\n      SWAP2 \t\t\t\n      POP \t\t\t\n      DUP3 \t\t\t\n      DUP3 \t\t\t\n      DIV \t\t\t\n      DUP5 \t\t\t\n      EQ \t\t\t\n      DUP4 \t\t\t\n      ISZERO \t\t\t\n      OR \t\t\t\n      PUSH [tag] 146\t\t\t\n      JUMPI \t\t\t\n      PUSH [tag] 147\t\t\t\n      PUSH [tag] 93\t\t\t\n      JUMP \t\t\t\n    tag 147\t\t\t\n      JUMPDEST \t\t\t\n    tag 146\t\t\t\n      JUMPDEST \t\t\t\n      POP \t\t\t\n      SWAP3 \t\t\t\n      SWAP2 \t\t\t\n      POP \t\t\t\n      POP \t\t\t\n      JUMP \t\t\t\n    tag 94\t\t\t\n      JUMPDEST \t\t\t\n      PUSH 496E73756666696369656E742066756E64730000000000000000000000000000\t\t\t\n      PUSH 0\t\t\t\n      DUP3 \t\t\t\n      ADD \t\t\t\n      MSTORE \t\t\t\n      POP \t\t\t\n      JUMP \t\t\t\n    tag 95\t\t\t\n      JUMPDEST \t\t\t\n      PUSH 0\t\t\t\n      PUSH [tag] 150\t\t\t\n      PUSH 12\t\t\t\n      DUP4 \t\t\t\n      PUSH [tag] 90\t\t\t\n      JUMP \t\t\t\n    tag 150\t\t\t\n      JUMPDEST \t\t\t\n      SWAP2 \t\t\t\n      POP \t\t\t\n      PUSH [tag] 151\t\t\t\n      DUP3 \t\t\t\n      PUSH [tag] 94\t\t\t\n      JUMP \t\t\t\n    tag 151\t\t\t\n      JUMPDEST \t\t\t\n      PUSH 20\t\t\t\n      DUP3 \t\t\t\n      ADD \t\t\t\n      SWAP1 \t\t\t\n      POP \t\t\t\n      SWAP2 \t\t\t\n      SWAP1 \t\t\t\n      POP \t\t\t\n      JUMP \t\t\t\n    tag 55\t\t\t\n      JUMPDEST \t\t\t\n      PUSH 0\t\t\t\n      PUSH 20\t\t\t\n      DUP3 \t\t\t\n      ADD \t\t\t\n      SWAP1 \t\t\t\n      POP \t\t\t\n      DUP2 \t\t\t\n      DUP2 \t\t\t\n      SUB \t\t\t\n      PUSH 0\t\t\t\n      DUP4 \t\t\t\n      ADD \t\t\t\n      MSTORE \t\t\t\n      PUSH [tag] 153\t\t\t\n      DUP2 \t\t\t\n      PUSH [tag] 95\t\t\t\n      JUMP \t\t\t\n    tag 153\t\t\t\n      JUMPDEST \t\t\t\n      SWAP1 \t\t\t\n      POP \t\t\t\n      SWAP2 \t\t\t\n      SWAP1 \t\t\t\n      POP \t\t\t\n      JUMP \t\t\t\n    tag 58\t\t\t\n      JUMPDEST \t\t\t\n      PUSH 0\t\t\t\n      PUSH [tag] 155\t\t\t\n      DUP3 \t\t\t\n      PUSH [tag] 85\t\t\t\n      JUMP \t\t\t\n    tag 155\t\t\t\n      JUMPDEST \t\t\t\n      SWAP2 \t\t\t\n      POP \t\t\t\n      PUSH [tag] 156\t\t\t\n      DUP4 \t\t\t\n      PUSH [tag] 85\t\t\t\n      JUMP \t\t\t\n    tag 156\t\t\t\n      JUMPDEST \t\t\t\n      SWAP3 \t\t\t\n      POP \t\t\t\n      DUP3 \t\t\t\n      DUP3 \t\t\t\n      SUB \t\t\t\n      SWAP1 \t\t\t\n      POP \t\t\t\n      DUP2 \t\t\t\n      DUP2 \t\t\t\n      GT \t\t\t\n      ISZERO \t\t\t\n      PUSH [tag] 157\t\t\t\n      JUMPI \t\t\t\n      PUSH [tag] 158\t\t\t\n      PUSH [tag] 93\t\t\t\n      JUMP \t\t\t\n    tag 158\t\t\t\n      JUMPDEST \t\t\t\n    tag 157\t\t\t\n      JUMPDEST \t\t\t\n      SWAP3 \t\t\t\n      SWAP2 \t\t\t\n      POP \t\t\t\n      POP \t\t\t\n      JUMP \t\t\t\n    tag 61\t\t\t\n      JUMPDEST \t\t\t\n      PUSH 0\t\t\t\n      PUSH [tag] 160\t\t\t\n      DUP3 \t\t\t\n      PUSH [tag] 85\t\t\t\n      JUMP \t\t\t\n    tag 160\t\t\t\n      JUMPDEST \t\t\t\n      SWAP2 \t\t\t\n      POP \t\t\t\n      PUSH [tag] 161\t\t\t\n      DUP4 \t\t\t\n      PUSH [tag] 85\t\t\t\n      JUMP \t\t\t\n    tag 161\t\t\t\n      JUMPDEST \t\t\t\n      SWAP3 \t\t\t\n      POP \t\t\t\n      DUP3 \t\t\t\n      DUP3 \t\t\t\n      ADD \t\t\t\n      SWAP1 \t\t\t\n      POP \t\t\t\n      DUP1 \t\t\t\n      DUP3 \t\t\t\n      GT \t\t\t\n      ISZERO \t\t\t\n      PUSH [tag] 162\t\t\t\n      JUMPI \t\t\t\n      PUSH [tag] 163\t\t\t\n      PUSH [tag] 93\t\t\t\n      JUMP \t\t\t\n    tag 163\t\t\t\n      JUMPDEST \t\t\t\n    tag 162\t\t\t\n      JUMPDEST \t\t\t\n      SWAP3 \t\t\t\n      SWAP2 \t\t\t\n      POP \t\t\t\n      POP \t\t\t\n      JUMP \t\t\t\n    tag 65\t\t\t\n      JUMPDEST \t\t\t\n      PUSH 0\t\t\t\n      PUSH 40\t\t\t\n      DUP3 \t\t\t\n      ADD \t\t\t\n      SWAP1 \t\t\t\n      POP \t\t\t\n      PUSH [tag] 165\t\t\t\n      PUSH 0\t\t\t\n      DUP4 \t\t\t\n      ADD \t\t\t\n      DUP6 \t\t\t\n      PUSH [tag] 86\t\t\t\n      JUMP \t\t\t\n    tag 165\t\t\t\n      JUMPDEST \t\t\t\n      PUSH [tag] 166\t\t\t\n      PUSH 20\t\t\t\n      DUP4 \t\t\t\n      ADD \t\t\t\n      DUP5 \t\t\t\n      PUSH [tag] 86\t\t\t\n      JUMP \t\t\t\n    tag 166\t\t\t\n      JUMPDEST \t\t\t\n      SWAP4 \t\t\t\n      SWAP3 \t\t\t\n      POP \t\t\t\n      POP \t\t\t\n      POP \t\t\t\n      JUMP \t\t\t\n    tag 96\t\t\t\n      JUMPDEST \t\t\t\n      PUSH 4E6F2062616C616E636520746F20776974686472617700000000000000000000\t\t\t\n      PUSH 0\t\t\t\n      DUP3 \t\t\t\n      ADD \t\t\t\n      MSTORE \t\t\t\n      POP \t\t\t\n      JUMP \t\t\t\n    tag 97\t\t\t\n      JUMPDEST \t\t\t\n      PUSH 0\t\t\t\n      PUSH [tag] 169\t\t\t\n      PUSH 16\t\t\t\n      DUP4 \t\t\t\n      PUSH [tag] 90\t\t\t\n      JUMP \t\t\t\n    tag 169\t\t\t\n      JUMPDEST \t\t\t\n      SWAP2 \t\t\t\n      POP \t\t\t\n      PUSH [tag] 170\t\t\t\n      DUP3 \t\t\t\n      PUSH [tag] 96\t\t\t\n      JUMP \t\t\t\n    tag 170\t\t\t\n      JUMPDEST \t\t\t\n      PUSH 20\t\t\t\n      DUP3 \t\t\t\n      ADD \t\t\t\n      SWAP1 \t\t\t\n      POP \t\t\t\n      SWAP2 \t\t\t\n      SWAP1 \t\t\t\n      POP \t\t\t\n      JUMP \t\t\t\n    tag 69\t\t\t\n      JUMPDEST \t\t\t\n      PUSH 0\t\t\t\n      PUSH 20\t\t\t\n      DUP3 \t\t\t\n      ADD \t\t\t\n      SWAP1 \t\t\t\n      POP \t\t\t\n      DUP2 \t\t\t\n      DUP2 \t\t\t\n      SUB \t\t\t\n      PUSH 0\t\t\t\n      DUP4 \t\t\t\n      ADD \t\t\t\n      MSTORE \t\t\t\n      PUSH [tag] 172\t\t\t\n      DUP2 \t\t\t\n      PUSH [tag] 97\t\t\t\n      JUMP \t\t\t\n    tag 172\t\t\t\n      JUMPDEST \t\t\t\n      SWAP1 \t\t\t\n      POP \t\t\t\n      SWAP2 \t\t\t\n      SWAP1 \t\t\t\n      POP \t\t\t\n      JUMP \t\t\t\n    tag 98\t\t\t\n      JUMPDEST \t\t\t\n      PUSH 4F6E6C7920746865206F776E65722063616E20706572666F726D207468697320\t\t\t\n      PUSH 0\t\t\t\n      DUP3 \t\t\t\n      ADD \t\t\t\n      MSTORE \t\t\t\n      PUSH 616374696F6E0000000000000000000000000000000000000000000000000000\t\t\t\n      PUSH 20\t\t\t\n      DUP3 \t\t\t\n      ADD \t\t\t\n      MSTORE \t\t\t\n      POP \t\t\t\n      JUMP \t\t\t\n    tag 99\t\t\t\n      JUMPDEST \t\t\t\n      PUSH 0\t\t\t\n      PUSH [tag] 175\t\t\t\n      PUSH 26\t\t\t\n      DUP4 \t\t\t\n      PUSH [tag] 90\t\t\t\n      JUMP \t\t\t\n    tag 175\t\t\t\n      JUMPDEST \t\t\t\n      SWAP2 \t\t\t\n      POP \t\t\t\n      PUSH [tag] 176\t\t\t\n      DUP3 \t\t\t\n      PUSH [tag] 98\t\t\t\n      JUMP \t\t\t\n    tag 176\t\t\t\n      JUMPDEST \t\t\t\n      PUSH 40\t\t\t\n      DUP3 \t\t\t\n      ADD \t\t\t\n      SWAP1 \t\t\t\n      POP \t\t\t\n      SWAP2 \t\t\t\n      SWAP1 \t\t\t\n      POP \t\t\t\n      JUMP \t\t\t\n    tag 75\t\t\t\n      JUMPDEST \t\t\t\n      PUSH 0\t\t\t\n      PUSH 20\t\t\t\n      DUP3 \t\t\t\n      ADD \t\t\t\n      SWAP1 \t\t\t\n      POP \t\t\t\n      DUP2 \t\t\t\n      DUP2 \t\t\t\n      SUB \t\t\t\n      PUSH 0\t\t\t\n      DUP4 \t\t\t\n      ADD \t\t\t\n      MSTORE \t\t\t\n      PUSH [tag] 178\t\t\t\n      DUP2 \t\t\t\n      PUSH [tag] 99\t\t\t\n      JUMP \t\t\t\n    tag 178\t\t\t\n      JUMPDEST \t\t\t\n      SWAP1 \t\t\t\n      POP \t\t\t\n      SWAP2 \t\t\t\n      SWAP1 \t\t\t\n      POP \t\t\t\n      JUMP \t\t\t\n    .data\n"
}